{
  "transactions": [
    {
      "hash": "0x702d860da4e919657d44266aac0a6c2904b1f890b05d98c61d767cc4b155abd5",
      "transactionType": "CALL",
      "contractName": null,
      "contractAddress": "0xe78663b6b31a67223f2a23e638142d5916484491",
      "function": "mint(address,uint256)",
      "arguments": [
        "0x4b992F2Fbf714C0fCBb23baC5130Ace48CaD00cd",
        "1000000000000000000000000"
      ],
      "transaction": {
        "from": "0x4b992f2fbf714c0fcbb23bac5130ace48cad00cd",
        "to": "0xe78663b6b31a67223f2a23e638142d5916484491",
        "value": "0x0",
        "input": "0x40c10f190000000000000000000000004b992f2fbf714c0fcbb23bac5130ace48cad00cd00000000000000000000000000000000000000000000d3c21bcecceda1000000",
        "nonce": "0x1ab",
        "chainId": "0x515"
      },
      "additionalContracts": [],
      "isFixedGasLimit": false
    },
    {
      "hash": "0xfb66edd0f00f3b4d7852802e40934e8157082c2cc6040292d1ba02b6cac1a701",
      "transactionType": "CALL",
      "contractName": null,
      "contractAddress": "0xe78663b6b31a67223f2a23e638142d5916484491",
      "function": "approve(address,uint256)",
      "arguments": [
        "0xee661645166FBD92E712ecBCF786b9C1707997eF",
        "115792089237316195423570985008687907853269984665640564039457584007913129639935"
      ],
      "transaction": {
        "from": "0x4b992f2fbf714c0fcbb23bac5130ace48cad00cd",
        "to": "0xe78663b6b31a67223f2a23e638142d5916484491",
        "value": "0x0",
        "input": "0x095ea7b3000000000000000000000000ee661645166fbd92e712ecbcf786b9c1707997efffffffffffffffffffffffffffffffffffffffffffffffffffffffffffffffff",
        "nonce": "0x1ac",
        "chainId": "0x515"
      },
      "additionalContracts": [],
      "isFixedGasLimit": false
    },
    {
      "hash": "0xd0f6cb920c6e1f966ef431f893811505d33765b1bd1f082d75350590930ef49b",
      "transactionType": "CALL",
      "contractName": null,
      "contractAddress": "0xee661645166fbd92e712ecbcf786b9c1707997ef",
      "function": "depositInsurance(uint256)",
      "arguments": [
        "500000000000000000000000"
      ],
      "transaction": {
        "from": "0x4b992f2fbf714c0fcbb23bac5130ace48cad00cd",
        "to": "0xee661645166fbd92e712ecbcf786b9c1707997ef",
        "value": "0x0",
        "input": "0x0ae40be10000000000000000000000000000000000000000000069e10de76676d0800000",
        "nonce": "0x1ad",
        "chainId": "0x515"
      },
      "additionalContracts": [],
      "isFixedGasLimit": false
    },
    {
      "hash": "0xdd07d8665a995bd41f3421640291d5833ccd6d2a58f31f33ce5071874395c48d",
      "transactionType": "CALL",
      "contractName": null,
      "contractAddress": "0xe78663b6b31a67223f2a23e638142d5916484491",
      "function": "mint(address,uint256)",
      "arguments": [
        "0x10960d511C1c447175bB9F59E842F3D381D8a42c",
        "5000000000000000000000"
      ],
      "transaction": {
        "from": "0x4b992f2fbf714c0fcbb23bac5130ace48cad00cd",
        "to": "0xe78663b6b31a67223f2a23e638142d5916484491",
        "value": "0x0",
        "input": "0x40c10f1900000000000000000000000010960d511c1c447175bb9f59e842f3d381d8a42c00000000000000000000000000000000000000000000010f0cf064dd59200000",
        "nonce": "0x1ae",
        "chainId": "0x515"
      },
      "additionalContracts": [],
      "isFixedGasLimit": false
    },
    {
      "hash": "0x6c73939e3f99e18274d147377e5064bc7c1fa8cc81e01f13620ef2722fb6c099",
      "transactionType": "CALL",
      "contractName": null,
      "contractAddress": "0xe78663b6b31a67223f2a23e638142d5916484491",
      "function": "mint(address,uint256)",
      "arguments": [
        "0x8c76D725Dbed2F3617200d300fB7BAE4CB86d113",
        "5000000000000000000000"
      ],
      "transaction": {
        "from": "0x4b992f2fbf714c0fcbb23bac5130ace48cad00cd",
        "to": "0xe78663b6b31a67223f2a23e638142d5916484491",
        "value": "0x0",
        "input": "0x40c10f190000000000000000000000008c76d725dbed2f3617200d300fb7bae4cb86d11300000000000000000000000000000000000000000000010f0cf064dd59200000",
        "nonce": "0x1af",
        "chainId": "0x515"
      },
      "additionalContracts": [],
      "isFixedGasLimit": false
    },
    {
      "hash": "0x32c579208269d4bcb222c5f73d08d0df0a113113c57358a8dc54021259eca7b0",
      "transactionType": "CALL",
      "contractName": null,
      "contractAddress": "0xac25bd28d5171821ecc9030933778d2ce242fa8a",
      "function": "setHook(address)",
      "arguments": [
        "0x4b992F2Fbf714C0fCBb23baC5130Ace48CaD00cd"
      ],
      "transaction": {
        "from": "0x4b992f2fbf714c0fcbb23bac5130ace48cad00cd",
        "to": "0xac25bd28d5171821ecc9030933778d2ce242fa8a",
        "value": "0x0",
        "input": "0x3dfd38730000000000000000000000004b992f2fbf714c0fcbb23bac5130ace48cad00cd",
        "nonce": "0x1b0",
        "chainId": "0x515"
      },
      "additionalContracts": [],
      "isFixedGasLimit": false
    },
    {
      "hash": "0xda2cfd7dfc924ad48f418d3b68d57d08d42e8c8dcf497d110d42027443762440",
      "transactionType": "CALL",
      "contractName": null,
      "contractAddress": "0xac25bd28d5171821ecc9030933778d2ce242fa8a",
      "function": "captureMarkPriceFromHook((address,address,uint24,int24,address),uint160,int24)",
      "arguments": [
        "(0xBdEea35F47E305791080c74B2551a521C406B7a2, 0xCc84E73F16F0C52f49130Ee39e379b4497fa6299, 3000, 60, 0x1FFcDC8fddFDF5B171eD90aF03B498E0C1c6C0c0)",
        "79228162514264337593543950336",
        "0"
      ],
      "transaction": {
        "from": "0x4b992f2fbf714c0fcbb23bac5130ace48cad00cd",
        "to": "0xac25bd28d5171821ecc9030933778d2ce242fa8a",
        "value": "0x0",
        "input": "0x41cb8dfc000000000000000000000000bdeea35f47e305791080c74b2551a521c406b7a2000000000000000000000000cc84e73f16f0c52f49130ee39e379b4497fa62990000000000000000000000000000000000000000000000000000000000000bb8000000000000000000000000000000000000000000000000000000000000003c0000000000000000000000001ffcdc8fddfdf5b171ed90af03b498e0c1c6c0c000000000000000000000000000000000000000010000000000000000000000000000000000000000000000000000000000000000000000000000000000000000",
        "nonce": "0x1b1",
        "chainId": "0x515"
      },
      "additionalContracts": [],
      "isFixedGasLimit": false
    },
    {
      "hash": "0x081ce1d31cdff0430db3109c6772fbd7bb03a1d09a0bfa12055ec29ec2bab785",
      "transactionType": "CALL",
      "contractName": null,
      "contractAddress": "0xac25bd28d5171821ecc9030933778d2ce242fa8a",
      "function": "setIndexPrice(bytes32,uint256)",
      "arguments": [
        "0x33972942cefbf97c03ea29e76ef387aa1a01c5cb18256d3e1b76081ba0211727",
        "1000000000000000000"
      ],
      "transaction": {
        "from": "0x4b992f2fbf714c0fcbb23bac5130ace48cad00cd",
        "to": "0xac25bd28d5171821ecc9030933778d2ce242fa8a",
        "value": "0x0",
        "input": "0xa6734caa33972942cefbf97c03ea29e76ef387aa1a01c5cb18256d3e1b76081ba02117270000000000000000000000000000000000000000000000000de0b6b3a7640000",
        "nonce": "0x1b2",
        "chainId": "0x515"
      },
      "additionalContracts": [],
      "isFixedGasLimit": false
    },
    {
      "hash": "0xf0bebcdae7a10987b72866a4589fbd2b11fa03e82eaa2791937d16d049830220",
      "transactionType": "CALL",
      "contractName": null,
      "contractAddress": "0xe78663b6b31a67223f2a23e638142d5916484491",
      "function": "approve(address,uint256)",
      "arguments": [
        "0xee661645166FBD92E712ecBCF786b9C1707997eF",
        "115792089237316195423570985008687907853269984665640564039457584007913129639935"
      ],
      "transaction": {
        "from": "0x10960d511c1c447175bb9f59e842f3d381d8a42c",
        "to": "0xe78663b6b31a67223f2a23e638142d5916484491",
        "value": "0x0",
        "input": "0x095ea7b3000000000000000000000000ee661645166fbd92e712ecbcf786b9c1707997efffffffffffffffffffffffffffffffffffffffffffffffffffffffffffffffff",
        "nonce": "0x3",
        "chainId": "0x515"
      },
      "additionalContracts": [],
      "isFixedGasLimit": false
    },
    {
      "hash": "0x3d892dcfa180ae2a9743e829fbe76f2105d675b4a72453e386ad5f3f6307f965",
      "transactionType": "CALL",
      "contractName": null,
      "contractAddress": "0xac25bd28d5171821ecc9030933778d2ce242fa8a",
      "function": "depositCollateral(uint256)",
      "arguments": [
        "1000000000000000000000"
      ],
      "transaction": {
        "from": "0x10960d511c1c447175bb9f59e842f3d381d8a42c",
        "to": "0xac25bd28d5171821ecc9030933778d2ce242fa8a",
        "value": "0x0",
        "input": "0xbad4a01f00000000000000000000000000000000000000000000003635c9adc5dea00000",
        "nonce": "0x4",
        "chainId": "0x515"
      },
      "additionalContracts": [],
      "isFixedGasLimit": false
    },
    {
      "hash": "0x300826b5629f7e5a92e167440314c7e5266b6c81b6face99ea6c48c1c3672afb",
      "transactionType": "CALL",
      "contractName": null,
      "contractAddress": "0xac25bd28d5171821ecc9030933778d2ce242fa8a",
      "function": "openPosition(bytes32,bool,uint256,uint256)",
      "arguments": [
        "0x33972942cefbf97c03ea29e76ef387aa1a01c5cb18256d3e1b76081ba0211727",
        "true",
        "3000000000000000000000",
        "400000000000000000000"
      ],
      "transaction": {
        "from": "0x10960d511c1c447175bb9f59e842f3d381d8a42c",
        "to": "0xac25bd28d5171821ecc9030933778d2ce242fa8a",
        "value": "0x0",
        "input": "0x2f998c2b33972942cefbf97c03ea29e76ef387aa1a01c5cb18256d3e1b76081ba021172700000000000000000000000000000000000000000000000000000000000000010000000000000000000000000000000000000000000000a2a15d09519be00000000000000000000000000000000000000000000000000015af1d78b58c400000",
        "nonce": "0x5",
        "chainId": "0x515"
      },
      "additionalContracts": [],
      "isFixedGasLimit": false
    },
    {
      "hash": "0xf1678979ea6b7f842199755018135918124505aa3cfbff6ac219ce07a6c148e1",
      "transactionType": "CALL",
      "contractName": null,
      "contractAddress": "0xe78663b6b31a67223f2a23e638142d5916484491",
      "function": "approve(address,uint256)",
      "arguments": [
        "0xee661645166FBD92E712ecBCF786b9C1707997eF",
        "115792089237316195423570985008687907853269984665640564039457584007913129639935"
      ],
      "transaction": {
        "from": "0x8c76d725dbed2f3617200d300fb7bae4cb86d113",
        "to": "0xe78663b6b31a67223f2a23e638142d5916484491",
        "value": "0x0",
        "input": "0x095ea7b3000000000000000000000000ee661645166fbd92e712ecbcf786b9c1707997efffffffffffffffffffffffffffffffffffffffffffffffffffffffffffffffff",
        "nonce": "0x3",
        "chainId": "0x515"
      },
      "additionalContracts": [],
      "isFixedGasLimit": false
    },
    {
      "hash": "0xb5d61d2995367632ee5c9cbdb251c2e2505aed581b8255a71d045147ebadfb2f",
      "transactionType": "CALL",
      "contractName": null,
      "contractAddress": "0xac25bd28d5171821ecc9030933778d2ce242fa8a",
      "function": "depositCollateral(uint256)",
      "arguments": [
        "1000000000000000000000"
      ],
      "transaction": {
        "from": "0x8c76d725dbed2f3617200d300fb7bae4cb86d113",
        "to": "0xac25bd28d5171821ecc9030933778d2ce242fa8a",
        "value": "0x0",
        "input": "0xbad4a01f00000000000000000000000000000000000000000000003635c9adc5dea00000",
        "nonce": "0x4",
        "chainId": "0x515"
      },
      "additionalContracts": [],
      "isFixedGasLimit": false
    },
    {
      "hash": "0x8487ac23701aaa1cd84a3bffb3876200d72dcc4aa8abd6d76e1219005b0a7fd8",
      "transactionType": "CALL",
      "contractName": null,
      "contractAddress": "0xac25bd28d5171821ecc9030933778d2ce242fa8a",
      "function": "openPosition(bytes32,bool,uint256,uint256)",
      "arguments": [
        "0x33972942cefbf97c03ea29e76ef387aa1a01c5cb18256d3e1b76081ba0211727",
        "false",
        "2000000000000000000000",
        "400000000000000000000"
      ],
      "transaction": {
        "from": "0x8c76d725dbed2f3617200d300fb7bae4cb86d113",
        "to": "0xac25bd28d5171821ecc9030933778d2ce242fa8a",
        "value": "0x0",
        "input": "0x2f998c2b33972942cefbf97c03ea29e76ef387aa1a01c5cb18256d3e1b76081ba0211727000000000000000000000000000000000000000000000000000000000000000000000000000000000000000000000000000000000000006c6b935b8bbd400000000000000000000000000000000000000000000000000015af1d78b58c400000",
        "nonce": "0x5",
        "chainId": "0x515"
      },
      "additionalContracts": [],
      "isFixedGasLimit": false
    },
    {
      "hash": "0x9b0f651942da0b004509c7463e638e1af4eb12a494e4fee723f1d51b1f7afe47",
      "transactionType": "CALL",
      "contractName": null,
      "contractAddress": "0xac25bd28d5171821ecc9030933778d2ce242fa8a",
      "function": "setIndexPrice(bytes32,uint256)",
      "arguments": [
        "0x33972942cefbf97c03ea29e76ef387aa1a01c5cb18256d3e1b76081ba0211727",
        "1000000000000000000"
      ],
      "transaction": {
        "from": "0x4b992f2fbf714c0fcbb23bac5130ace48cad00cd",
        "to": "0xac25bd28d5171821ecc9030933778d2ce242fa8a",
        "value": "0x0",
        "input": "0xa6734caa33972942cefbf97c03ea29e76ef387aa1a01c5cb18256d3e1b76081ba02117270000000000000000000000000000000000000000000000000de0b6b3a7640000",
        "nonce": "0x1b3",
        "chainId": "0x515"
      },
      "additionalContracts": [],
      "isFixedGasLimit": false
    },
    {
      "hash": "0xec5a273d851fef281634ce27fae986f4d3c62b50899c2cd43ccdfc704e350fd1",
      "transactionType": "CALL",
      "contractName": null,
      "contractAddress": "0xac25bd28d5171821ecc9030933778d2ce242fa8a",
      "function": "setHook(address)",
      "arguments": [
        "0x4b992F2Fbf714C0fCBb23baC5130Ace48CaD00cd"
      ],
      "transaction": {
        "from": "0x4b992f2fbf714c0fcbb23bac5130ace48cad00cd",
        "to": "0xac25bd28d5171821ecc9030933778d2ce242fa8a",
        "value": "0x0",
        "input": "0x3dfd38730000000000000000000000004b992f2fbf714c0fcbb23bac5130ace48cad00cd",
        "nonce": "0x1b4",
        "chainId": "0x515"
      },
      "additionalContracts": [],
      "isFixedGasLimit": false
    },
    {
      "hash": "0x2d8945f0220850556f3e724835a1d3ebd808b3665ffb55a5aeb2a15b02768ccd",
      "transactionType": "CALL",
      "contractName": null,
      "contractAddress": "0xac25bd28d5171821ecc9030933778d2ce242fa8a",
      "function": "captureMarkPriceFromHook((address,address,uint24,int24,address),uint160,int24)",
      "arguments": [
        "(0xBdEea35F47E305791080c74B2551a521C406B7a2, 0xCc84E73F16F0C52f49130Ee39e379b4497fa6299, 3000, 60, 0x1FFcDC8fddFDF5B171eD90aF03B498E0C1c6C0c0)",
        "55459713759985036315480765235",
        "0"
      ],
      "transaction": {
        "from": "0x4b992f2fbf714c0fcbb23bac5130ace48cad00cd",
        "to": "0xac25bd28d5171821ecc9030933778d2ce242fa8a",
        "value": "0x0",
        "input": "0x41cb8dfc000000000000000000000000bdeea35f47e305791080c74b2551a521c406b7a2000000000000000000000000cc84e73f16f0c52f49130ee39e379b4497fa62990000000000000000000000000000000000000000000000000000000000000bb8000000000000000000000000000000000000000000000000000000000000003c0000000000000000000000001ffcdc8fddfdf5b171ed90af03b498e0c1c6c0c00000000000000000000000000000000000000000b333333333333333333333330000000000000000000000000000000000000000000000000000000000000000",
        "nonce": "0x1b5",
        "chainId": "0x515"
      },
      "additionalContracts": [],
      "isFixedGasLimit": false
    },
    {
      "hash": "0xcda251d1fc24804d1c49fd972eb2fa9efb929d2072a929705bdfd7a3184a2f89",
      "transactionType": "CALL",
      "contractName": null,
      "contractAddress": "0xac25bd28d5171821ecc9030933778d2ce242fa8a",
      "function": "updateFunding(bytes32)",
      "arguments": [
        "0x33972942cefbf97c03ea29e76ef387aa1a01c5cb18256d3e1b76081ba0211727"
      ],
      "transaction": {
        "from": "0x4b992f2fbf714c0fcbb23bac5130ace48cad00cd",
        "to": "0xac25bd28d5171821ecc9030933778d2ce242fa8a",
        "value": "0x0",
        "input": "0xf98cecbe33972942cefbf97c03ea29e76ef387aa1a01c5cb18256d3e1b76081ba0211727",
        "nonce": "0x1b6",
        "chainId": "0x515"
      },
      "additionalContracts": [],
      "isFixedGasLimit": false
    },
    {
      "hash": "0x3380cfda9fa83962b1c8fd274a5f00288efccb602ad5b19451f76a9c3d081e77",
      "transactionType": "CALL",
      "contractName": null,
      "contractAddress": "0x0d428e4ee3da759831bdbf0e75aecf91dda24764",
      "function": "liquidate(address,bytes32)",
      "arguments": [
        "0x10960d511C1c447175bB9F59E842F3D381D8a42c",
        "0x33972942cefbf97c03ea29e76ef387aa1a01c5cb18256d3e1b76081ba0211727"
      ],
      "transaction": {
        "from": "0x4b992f2fbf714c0fcbb23bac5130ace48cad00cd",
        "to": "0x0d428e4ee3da759831bdbf0e75aecf91dda24764",
        "value": "0x0",
        "input": "0x3af8c7a600000000000000000000000010960d511c1c447175bb9f59e842f3d381d8a42c33972942cefbf97c03ea29e76ef387aa1a01c5cb18256d3e1b76081ba0211727",
        "nonce": "0x1b7",
        "chainId": "0x515"
      },
      "additionalContracts": [],
      "isFixedGasLimit": false
    }
  ],
  "receipts": [
    {
      "status": "0x1",
      "cumulativeGasUsed": "0x46ea5",
      "logs": [
        {
          "address": "0xe78663b6b31a67223f2a23e638142d5916484491",
          "topics": [
            "0xddf252ad1be2c89b69c2b068fc378daa952ba7f163c4a11628f55a4df523b3ef",
            "0x0000000000000000000000000000000000000000000000000000000000000000",
            "0x0000000000000000000000004b992f2fbf714c0fcbb23bac5130ace48cad00cd"
          ],
          "data": "0x00000000000000000000000000000000000000000000d3c21bcecceda1000000",
          "blockHash": "0xe2b7211a412a9ab15b9c7c393466dc6602d3996fcc8f5cd8adecc21bb1c5366d",
          "blockNumber": "0x2c272c5",
          "blockTimestamp": "0x69b02011",
          "transactionHash": "0x702d860da4e919657d44266aac0a6c2904b1f890b05d98c61d767cc4b155abd5",
          "transactionIndex": "0x4",
          "logIndex": "0x2",
          "removed": false
        }
      ],
      "logsBloom": "0x00000000000000000000000000000000000000000000000000000000000000000000000000000000000000000000000000000002000000000000000000080000000000000000000000000008000000000000000000000000000100000000000000000000020000000000000000020800000000000000000000000010000000000000000000000001000000000000000000000000000000020000000000000000000000000000000000000000000000000000000000000000000000000000000000000002000000000000000000000000000000000000000000000000000020000000000000000000000000000000000000000000000000000000000000000000",
      "type": "0x2",
      "transactionHash": "0x702d860da4e919657d44266aac0a6c2904b1f890b05d98c61d767cc4b155abd5",
      "transactionIndex": "0x4",
      "blockHash": "0xe2b7211a412a9ab15b9c7c393466dc6602d3996fcc8f5cd8adecc21bb1c5366d",
      "blockNumber": "0x2c272c5",
      "gasUsed": "0x8487",
      "effectiveGasPrice": "0x7a121",
      "blobGasUsed": "0x9c40",
      "from": "0x4b992f2fbf714c0fcbb23bac5130ace48cad00cd",
      "to": "0xe78663b6b31a67223f2a23e638142d5916484491",
      "contractAddress": null,
      "daFootprintGasScalar": "0x190",
      "l1BaseFeeScalar": "0x7d0",
      "l1BlobBaseFee": "0x1",
      "l1BlobBaseFeeScalar": "0xdbba0",
      "l1Fee": "0x83",
      "l1GasPrice": "0xd",
      "l1GasUsed": "0x640"
    },
    {
      "status": "0x1",
      "cumulativeGasUsed": "0x4a31f",
      "logs": [
        {
          "address": "0xe78663b6b31a67223f2a23e638142d5916484491",
          "topics": [
            "0x8c5be1e5ebec7d5bd14f71427d1e84f3dd0314c0f7b2291e5b200ac8c7c3b925",
            "0x0000000000000000000000004b992f2fbf714c0fcbb23bac5130ace48cad00cd",
            "0x000000000000000000000000ee661645166fbd92e712ecbcf786b9c1707997ef"
          ],
          "data": "0xffffffffffffffffffffffffffffffffffffffffffffffffffffffffffffffff",
          "blockHash": "0xe6fba327ae60845bf9ced69c185ecd69a1d945ee5da16521cfcaf97654e7e30d",
          "blockNumber": "0x2c272c8",
          "blockTimestamp": "0x69b02014",
          "transactionHash": "0xfb66edd0f00f3b4d7852802e40934e8157082c2cc6040292d1ba02b6cac1a701",
          "transactionIndex": "0x5",
          "logIndex": "0x2",
          "removed": false
        }
      ],
      "logsBloom": "0x00000000040000000000000000000000000000000000000000000000000000000000000000000000000000000000000000000002000100000000000000280000000000000000000000000000000000000000000000000000000100000000000000000000000000000000000000020000000000000000000000000000000000000000000000000001000000000000000000000000000000020000000000000000020000000000000000000000000000000000000000000000000000000000000000000000000000000000000000000000000000000000000000010000000000000010000000000000000000000000000000000000000000000000000000000000",
      "type": "0x2",
      "transactionHash": "0xfb66edd0f00f3b4d7852802e40934e8157082c2cc6040292d1ba02b6cac1a701",
      "transactionIndex": "0x5",
      "blockHash": "0xe6fba327ae60845bf9ced69c185ecd69a1d945ee5da16521cfcaf97654e7e30d",
      "blockNumber": "0x2c272c8",
      "gasUsed": "0x66ed",
      "effectiveGasPrice": "0x7a121",
      "blobGasUsed": "0x9c40",
      "from": "0x4b992f2fbf714c0fcbb23bac5130ace48cad00cd",
      "to": "0xe78663b6b31a67223f2a23e638142d5916484491",
      "contractAddress": null,
      "daFootprintGasScalar": "0x190",
      "l1BaseFeeScalar": "0x7d0",
      "l1BlobBaseFee": "0x1",
      "l1BlobBaseFeeScalar": "0xdbba0",
      "l1Fee": "0x83",
      "l1GasPrice": "0xd",
      "l1GasUsed": "0x640"
    },
    {
      "status": "0x1",
      "cumulativeGasUsed": "0x336fb",
      "logs": [
        {
          "address": "0xe78663b6b31a67223f2a23e638142d5916484491",
          "topics": [
            "0xddf252ad1be2c89b69c2b068fc378daa952ba7f163c4a11628f55a4df523b3ef",
            "0x0000000000000000000000004b992f2fbf714c0fcbb23bac5130ace48cad00cd",
            "0x000000000000000000000000ee661645166fbd92e712ecbcf786b9c1707997ef"
          ],
          "data": "0x0000000000000000000000000000000000000000000069e10de76676d0800000",
          "blockHash": "0x95615d1a4edabd4b7ad260961ae9fd7769b6c647c9dc9fa27d2603cb8d8a1abe",
          "blockNumber": "0x2c272cb",
          "blockTimestamp": "0x69b02017",
          "transactionHash": "0xd0f6cb920c6e1f966ef431f893811505d33765b1bd1f082d75350590930ef49b",
          "transactionIndex": "0x3",
          "logIndex": "0x1",
          "removed": false
        },
        {
          "address": "0xee661645166fbd92e712ecbcf786b9c1707997ef",
          "topics": [
            "0xe6b81755e9a8d33c17416b71b3f0961808da876dbc287641d63f868e4fce0673",
            "0x0000000000000000000000004b992f2fbf714c0fcbb23bac5130ace48cad00cd"
          ],
          "data": "0x0000000000000000000000000000000000000000000069e10de76676d0800000",
          "blockHash": "0x95615d1a4edabd4b7ad260961ae9fd7769b6c647c9dc9fa27d2603cb8d8a1abe",
          "blockNumber": "0x2c272cb",
          "blockTimestamp": "0x69b02017",
          "transactionHash": "0xd0f6cb920c6e1f966ef431f893811505d33765b1bd1f082d75350590930ef49b",
          "transactionIndex": "0x3",
          "logIndex": "0x2",
          "removed": false
        }
      ],
      "logsBloom": "0x01000000040000000000000004000000000000000000000000000000000000000000000000000000800000000000000000000002000100000000000000080000000000000000000000400008000000000000000000000040000100000000000000000000000000000000000000020000000000000000000000000010000000000000000000000041000000000000000000000000000000020000000000000000000000000000000000000000000000000000000000000000000000000000000000000002000000000000000000000000000000000000000000010000000000000000000000000000000000000000000000000000000000000000000000000000",
      "type": "0x2",
      "transactionHash": "0xd0f6cb920c6e1f966ef431f893811505d33765b1bd1f082d75350590930ef49b",
      "transactionIndex": "0x3",
      "blockHash": "0x95615d1a4edabd4b7ad260961ae9fd7769b6c647c9dc9fa27d2603cb8d8a1abe",
      "blockNumber": "0x2c272cb",
      "gasUsed": "0xbd03",
      "effectiveGasPrice": "0x7a121",
      "blobGasUsed": "0x9c40",
      "from": "0x4b992f2fbf714c0fcbb23bac5130ace48cad00cd",
      "to": "0xee661645166fbd92e712ecbcf786b9c1707997ef",
      "contractAddress": null,
      "daFootprintGasScalar": "0x190",
      "l1BaseFeeScalar": "0x7d0",
      "l1BlobBaseFee": "0x1",
      "l1BlobBaseFeeScalar": "0xdbba0",
      "l1Fee": "0x83",
      "l1GasPrice": "0xd",
      "l1GasUsed": "0x640"
    },
    {
      "status": "0x1",
      "cumulativeGasUsed": "0x65b06",
      "logs": [
        {
          "address": "0xe78663b6b31a67223f2a23e638142d5916484491",
          "topics": [
            "0xddf252ad1be2c89b69c2b068fc378daa952ba7f163c4a11628f55a4df523b3ef",
            "0x0000000000000000000000000000000000000000000000000000000000000000",
            "0x00000000000000000000000010960d511c1c447175bb9f59e842f3d381d8a42c"
          ],
          "data": "0x00000000000000000000000000000000000000000000010f0cf064dd59200000",
          "blockHash": "0xeae5d313b2c810941bfdc0efed55b3e4c3ee958ec72177b160dcbc46d5b3ab8b",
          "blockNumber": "0x2c272ce",
          "blockTimestamp": "0x69b0201a",
          "transactionHash": "0xdd07d8665a995bd41f3421640291d5833ccd6d2a58f31f33ce5071874395c48d",
          "transactionIndex": "0x5",
          "logIndex": "0x9",
          "removed": false
        }
      ],
      "logsBloom": "0x00000000000000000000000000000000000000000000080000000000000000000000000000000000000000000000000000000000000000000000000000080000000000000000000000000008000000000000000000000000000000000000000000000000020000000000000000000800000000000000000000000010000000000000000000000001000001000000000000000000000000020000000000000000000000000000000000000000000000000000000000000000000000000000000000000002000000000000000000000000000000000000000000000000000020000000000000000000000000000000000000000000000000000000040000000000",
      "type": "0x2",
      "transactionHash": "0xdd07d8665a995bd41f3421640291d5833ccd6d2a58f31f33ce5071874395c48d",
      "transactionIndex": "0x5",
      "blockHash": "0xeae5d313b2c810941bfdc0efed55b3e4c3ee958ec72177b160dcbc46d5b3ab8b",
      "blockNumber": "0x2c272ce",
      "gasUsed": "0x849f",
      "effectiveGasPrice": "0x7a121",
      "blobGasUsed": "0x9c40",
      "from": "0x4b992f2fbf714c0fcbb23bac5130ace48cad00cd",
      "to": "0xe78663b6b31a67223f2a23e638142d5916484491",
      "contractAddress": null,
      "daFootprintGasScalar": "0x190",
      "l1BaseFeeScalar": "0x7d0",
      "l1BlobBaseFee": "0x1",
      "l1BlobBaseFeeScalar": "0xdbba0",
      "l1Fee": "0x83",
      "l1GasPrice": "0xd",
      "l1GasUsed": "0x640"
    },
    {
      "status": "0x1",
      "cumulativeGasUsed": "0x2fe97",
      "logs": [
        {
          "address": "0xe78663b6b31a67223f2a23e638142d5916484491",
          "topics": [
            "0xddf252ad1be2c89b69c2b068fc378daa952ba7f163c4a11628f55a4df523b3ef",
            "0x0000000000000000000000000000000000000000000000000000000000000000",
            "0x0000000000000000000000008c76d725dbed2f3617200d300fb7bae4cb86d113"
          ],
          "data": "0x00000000000000000000000000000000000000000000010f0cf064dd59200000",
          "blockHash": "0xff5c46efe5ff903d030df920e57ae4ded77b3489d562d2b225f1a76ce9f6d535",
          "blockNumber": "0x2c272d1",
          "blockTimestamp": "0x69b0201d",
          "transactionHash": "0x6c73939e3f99e18274d147377e5064bc7c1fa8cc81e01f13620ef2722fb6c099",
          "transactionIndex": "0x3",
          "logIndex": "0x1",
          "removed": false
        }
      ],
      "logsBloom": "0x00000000000000000000000000000000000000000000000000000000000000000000000000000000000000000000000000000000000000000000000000080000000000000000000000000008000000000000004000000000000000000000000000000000020000000000000000000800000000000000000000000010000000000000000000000001000000000000000000000000000000020000000000000000000000002000000000000000000000000000000000000000000000000000000000000002000000000000000000000000000000000000000000000000000020000000000000000000000000000000000000000000000000000000000000000080",
      "type": "0x2",
      "transactionHash": "0x6c73939e3f99e18274d147377e5064bc7c1fa8cc81e01f13620ef2722fb6c099",
      "transactionIndex": "0x3",
      "blockHash": "0xff5c46efe5ff903d030df920e57ae4ded77b3489d562d2b225f1a76ce9f6d535",
      "blockNumber": "0x2c272d1",
      "gasUsed": "0x849f",
      "effectiveGasPrice": "0x7a121",
      "blobGasUsed": "0x9c40",
      "from": "0x4b992f2fbf714c0fcbb23bac5130ace48cad00cd",
      "to": "0xe78663b6b31a67223f2a23e638142d5916484491",
      "contractAddress": null,
      "daFootprintGasScalar": "0x190",
      "l1BaseFeeScalar": "0x7d0",
      "l1BlobBaseFee": "0x1",
      "l1BlobBaseFeeScalar": "0xdbba0",
      "l1Fee": "0x83",
      "l1GasPrice": "0xd",
      "l1GasUsed": "0x640"
    },
    {
      "status": "0x1",
      "cumulativeGasUsed": "0x2e471",
      "logs": [
        {
          "address": "0xac25bd28d5171821ecc9030933778d2ce242fa8a",
          "topics": [
            "0x4eab7b127c764308788622363ad3e9532de3dfba7845bd4f84c125a22544255a",
            "0x0000000000000000000000004b992f2fbf714c0fcbb23bac5130ace48cad00cd"
          ],
          "data": "0x",
          "blockHash": "0xa1ec9696f9a484c46b9458e2e0c07bec14cbaf49e86e59d51d2360c0eca8c7a3",
          "blockNumber": "0x2c272d4",
          "blockTimestamp": "0x69b02020",
          "transactionHash": "0x32c579208269d4bcb222c5f73d08d0df0a113113c57358a8dc54021259eca7b0",
          "transactionIndex": "0x3",
          "logIndex": "0x1",
          "removed": false
        }
      ],
      "logsBloom": "0x00000000000000000000000000000000000400000000000000000000000000000000000000000000000000000000000000000002000000000000000000000000000000000000000000000000000000000000000000000000000100000000000000000000000000000000000000020000000000000000000000000000000000000000000000000000000000400000000000000000000000000000000000000000000000000000008000000000000000000000000010000000000000000000000000004000000000000000000000000000000000000000000000000000000000000000000000000000000080000000000000000000000000000000000000000000",
      "type": "0x2",
      "transactionHash": "0x32c579208269d4bcb222c5f73d08d0df0a113113c57358a8dc54021259eca7b0",
      "transactionIndex": "0x3",
      "blockHash": "0xa1ec9696f9a484c46b9458e2e0c07bec14cbaf49e86e59d51d2360c0eca8c7a3",
      "blockNumber": "0x2c272d4",
      "gasUsed": "0x6a79",
      "effectiveGasPrice": "0x7a121",
      "blobGasUsed": "0x9c40",
      "from": "0x4b992f2fbf714c0fcbb23bac5130ace48cad00cd",
      "to": "0xac25bd28d5171821ecc9030933778d2ce242fa8a",
      "contractAddress": null,
      "daFootprintGasScalar": "0x190",
      "l1BaseFeeScalar": "0x7d0",
      "l1BlobBaseFee": "0x1",
      "l1BlobBaseFeeScalar": "0xdbba0",
      "l1Fee": "0x83",
      "l1GasPrice": "0xd",
      "l1GasUsed": "0x640"
    },
    {
      "status": "0x1",
      "cumulativeGasUsed": "0x301b0",
      "logs": [
        {
          "address": "0xac25bd28d5171821ecc9030933778d2ce242fa8a",
          "topics": [
            "0x7e3b37ff982592cf8b07b654e23550e253ed705a9d04560247e79beed3919261",
            "0x33972942cefbf97c03ea29e76ef387aa1a01c5cb18256d3e1b76081ba0211727"
          ],
          "data": "0x0000000000000000000000000000000000000000000000000de0b6b3a76400000000000000000000000000000000000000000000000000000000000000000000",
          "blockHash": "0x5ebea6608a904628f1fbcc0c1caf78a3af161a3e9788b418b79dfc925f2636f6",
          "blockNumber": "0x2c272d7",
          "blockTimestamp": "0x69b02023",
          "transactionHash": "0xda2cfd7dfc924ad48f418d3b68d57d08d42e8c8dcf497d110d42027443762440",
          "transactionIndex": "0x3",
          "logIndex": "0x1",
          "removed": false
        }
      ],
      "logsBloom": "0x00000000000000000000000000000000040400000000000000000000000010000000000000000000000000000000000000000000000000000000000000000000000000000000000000000000000000000000000000000000000000000000400000000000000000000000000000000000400000000000000000000000000000000000000002000000000000000000000000000000000004000000000000000000000000000000000000000000000000000000000010000000000000000000000000000000000000000000000000000000000000000000000000000000000000000000000000000000000080000000000000000000000000000000000000000000",
      "type": "0x2",
      "transactionHash": "0xda2cfd7dfc924ad48f418d3b68d57d08d42e8c8dcf497d110d42027443762440",
      "transactionIndex": "0x3",
      "blockHash": "0x5ebea6608a904628f1fbcc0c1caf78a3af161a3e9788b418b79dfc925f2636f6",
      "blockNumber": "0x2c272d7",
      "gasUsed": "0x87b8",
      "effectiveGasPrice": "0x7a121",
      "blobGasUsed": "0xdf70",
      "from": "0x4b992f2fbf714c0fcbb23bac5130ace48cad00cd",
      "to": "0xac25bd28d5171821ecc9030933778d2ce242fa8a",
      "contractAddress": null,
      "daFootprintGasScalar": "0x190",
      "l1BaseFeeScalar": "0x7d0",
      "l1BlobBaseFee": "0x1",
      "l1BlobBaseFeeScalar": "0xdbba0",
      "l1Fee": "0xbc",
      "l1GasPrice": "0xd",
      "l1GasUsed": "0x8f1"
    },
    {
      "status": "0x1",
      "cumulativeGasUsed": "0x2f093",
      "logs": [
        {
          "address": "0xac25bd28d5171821ecc9030933778d2ce242fa8a",
          "topics": [
            "0xe44a72dedd13d73dc8f7a34a73ec39f494980252f270dbe4810e1ce7cd07252b",
            "0x33972942cefbf97c03ea29e76ef387aa1a01c5cb18256d3e1b76081ba0211727"
          ],
          "data": "0x0000000000000000000000000000000000000000000000000de0b6b3a7640000",
          "blockHash": "0xb69b790332245ad64ffb1fa6ab9932ead835943c1c7c6dbaa55a6c165126cc05",
          "blockNumber": "0x2c272da",
          "blockTimestamp": "0x69b02026",
          "transactionHash": "0x081ce1d31cdff0430db3109c6772fbd7bb03a1d09a0bfa12055ec29ec2bab785",
          "transactionIndex": "0x3",
          "logIndex": "0x1",
          "removed": false
        }
      ],
      "logsBloom": "0x00000000000000000000000000000000240400000000000000000000000000000000000000000000000000000000000000000000000000000000000000000000000000000000000000000000000000000000000000000000000000000000000000000000000000000000000000000000000000000000000000000000000000000000000002000000000000000000000000000000000004000000010000000000000000000000000000000000000000000000000010000000000000000000000000000000000000000000000000020000000000000000000000000000000000000000000000000000000080000000000000000000000000000000000000000000",
      "type": "0x2",
      "transactionHash": "0x081ce1d31cdff0430db3109c6772fbd7bb03a1d09a0bfa12055ec29ec2bab785",
      "transactionIndex": "0x3",
      "blockHash": "0xb69b790332245ad64ffb1fa6ab9932ead835943c1c7c6dbaa55a6c165126cc05",
      "blockNumber": "0x2c272da",
      "gasUsed": "0x769b",
      "effectiveGasPrice": "0x7a121",
      "blobGasUsed": "0x9c40",
      "from": "0x4b992f2fbf714c0fcbb23bac5130ace48cad00cd",
      "to": "0xac25bd28d5171821ecc9030933778d2ce242fa8a",
      "contractAddress": null,
      "daFootprintGasScalar": "0x190",
      "l1BaseFeeScalar": "0x7d0",
      "l1BlobBaseFee": "0x1",
      "l1BlobBaseFeeScalar": "0xdbba0",
      "l1Fee": "0x83",
      "l1GasPrice": "0xd",
      "l1GasUsed": "0x640"
    },
    {
      "status": "0x1",
      "cumulativeGasUsed": "0x45117",
      "logs": [
        {
          "address": "0xe78663b6b31a67223f2a23e638142d5916484491",
          "topics": [
            "0x8c5be1e5ebec7d5bd14f71427d1e84f3dd0314c0f7b2291e5b200ac8c7c3b925",
            "0x00000000000000000000000010960d511c1c447175bb9f59e842f3d381d8a42c",
            "0x000000000000000000000000ee661645166fbd92e712ecbcf786b9c1707997ef"
          ],
          "data": "0xffffffffffffffffffffffffffffffffffffffffffffffffffffffffffffffff",
          "blockHash": "0xcffe9f88d7345e0dd574891e957f106a49f17181a1c923ef2ab56cdea42882c2",
          "blockNumber": "0x2c272dd",
          "blockTimestamp": "0x69b02029",
          "transactionHash": "0xf0bebcdae7a10987b72866a4589fbd2b11fa03e82eaa2791937d16d049830220",
          "transactionIndex": "0x4",
          "logIndex": "0x2",
          "removed": false
        }
      ],
      "logsBloom": "0x00000000040000000000000000000000000000000000080000000000000000000000000000000000000000000000000000000000000100000000000000280000000000000000000000000000000000000000000000000000000000000000000000000000000000000000000000000000000000000000000000000000000000000000000000000001000001000000000000000000000000020000000000000000020000000000000000000000000000000000000000000000000000000000000000000000000000000000000000000000000000000000000000010000000000000010000000000000000000000000000000000000000000000000040000000000",
      "type": "0x2",
      "transactionHash": "0xf0bebcdae7a10987b72866a4589fbd2b11fa03e82eaa2791937d16d049830220",
      "transactionIndex": "0x4",
      "blockHash": "0xcffe9f88d7345e0dd574891e957f106a49f17181a1c923ef2ab56cdea42882c2",
      "blockNumber": "0x2c272dd",
      "gasUsed": "0x66ed",
      "effectiveGasPrice": "0x7a121",
      "blobGasUsed": "0x9c40",
      "from": "0x10960d511c1c447175bb9f59e842f3d381d8a42c",
      "to": "0xe78663b6b31a67223f2a23e638142d5916484491",
      "contractAddress": null,
      "daFootprintGasScalar": "0x190",
      "l1BaseFeeScalar": "0x7d0",
      "l1BlobBaseFee": "0x1",
      "l1BlobBaseFeeScalar": "0xdbba0",
      "l1Fee": "0x83",
      "l1GasPrice": "0xd",
      "l1GasUsed": "0x640"
    },
    {
      "status": "0x1",
      "cumulativeGasUsed": "0x4c7b0",
      "logs": [
        {
          "address": "0xe78663b6b31a67223f2a23e638142d5916484491",
          "topics": [
            "0xddf252ad1be2c89b69c2b068fc378daa952ba7f163c4a11628f55a4df523b3ef",
            "0x00000000000000000000000010960d511c1c447175bb9f59e842f3d381d8a42c",
            "0x000000000000000000000000ee661645166fbd92e712ecbcf786b9c1707997ef"
          ],
          "data": "0x00000000000000000000000000000000000000000000003635c9adc5dea00000",
          "blockHash": "0x9ef066d4429295a7bc03d88220878b17e9aba202be2091d1821fe79addb9549a",
          "blockNumber": "0x2c272e0",
          "blockTimestamp": "0x69b0202c",
          "transactionHash": "0x3d892dcfa180ae2a9743e829fbe76f2105d675b4a72453e386ad5f3f6307f965",
          "transactionIndex": "0x4",
          "logIndex": "0x2",
          "removed": false
        },
        {
          "address": "0xee661645166fbd92e712ecbcf786b9c1707997ef",
          "topics": [
            "0xd7243f6f8212d5188fd054141cf6ea89cfc0d91facb8c3afe2f88a1358480142",
            "0x00000000000000000000000010960d511c1c447175bb9f59e842f3d381d8a42c"
          ],
          "data": "0x00000000000000000000000000000000000000000000003635c9adc5dea00000",
          "blockHash": "0x9ef066d4429295a7bc03d88220878b17e9aba202be2091d1821fe79addb9549a",
          "blockNumber": "0x2c272e0",
          "blockTimestamp": "0x69b0202c",
          "transactionHash": "0x3d892dcfa180ae2a9743e829fbe76f2105d675b4a72453e386ad5f3f6307f965",
          "transactionIndex": "0x4",
          "logIndex": "0x3",
          "removed": false
        }
      ],
      "logsBloom": "0x00000000040000000000000004000000000000000000080000000000000000000000000000000000000000000000000000000000000100000000000000080000000000000000000000000008000000000000000000000040000000000000000000000000000000000000000000000000000000000000000000000010000000000000000000000041000001000000000000000000000000020000000000000000000000000000000000000000000000000000000000000000000000000000000000000012000000000000000000000000000000000040008000010000000000000000000000000000000000000000000000000000000000000000040000000000",
      "type": "0x2",
      "transactionHash": "0x3d892dcfa180ae2a9743e829fbe76f2105d675b4a72453e386ad5f3f6307f965",
      "transactionIndex": "0x4",
      "blockHash": "0x9ef066d4429295a7bc03d88220878b17e9aba202be2091d1821fe79addb9549a",
      "blockNumber": "0x2c272e0",
      "gasUsed": "0xdd86",
      "effectiveGasPrice": "0x7a121",
      "blobGasUsed": "0x9c40",
      "from": "0x10960d511c1c447175bb9f59e842f3d381d8a42c",
      "to": "0xac25bd28d5171821ecc9030933778d2ce242fa8a",
      "contractAddress": null,
      "daFootprintGasScalar": "0x190",
      "l1BaseFeeScalar": "0x7d0",
      "l1BlobBaseFee": "0x1",
      "l1BlobBaseFeeScalar": "0xdbba0",
      "l1Fee": "0x83",
      "l1GasPrice": "0xd",
      "l1GasUsed": "0x640"
    },
    {
      "status": "0x1",
      "cumulativeGasUsed": "0x51d1d",
      "logs": [
        {
          "address": "0xac25bd28d5171821ecc9030933778d2ce242fa8a",
          "topics": [
            "0xc698ef83681ffbcb10e381a6685b51fad9614e5cc06b4cd516035855c688adbf",
            "0x33972942cefbf97c03ea29e76ef387aa1a01c5cb18256d3e1b76081ba0211727"
          ],
          "data": "0x00000000000000000000000000000000000000000000000000000000000000000000000000000000000000000000000000000000000000000000000000000003",
          "blockHash": "0x662007c7d5f3cab3464502b08edca4e6967941eeb26c81bfe9968f202c3dfe58",
          "blockNumber": "0x2c272e3",
          "blockTimestamp": "0x69b0202f",
          "transactionHash": "0x300826b5629f7e5a92e167440314c7e5266b6c81b6face99ea6c48c1c3672afb",
          "transactionIndex": "0x3",
          "logIndex": "0x1",
          "removed": false
        },
        {
          "address": "0xee661645166fbd92e712ecbcf786b9c1707997ef",
          "topics": [
            "0x2251f6a4ed7fe619e9e8ce557d05a63dd484284f9c95c9ab334f6a7707cd0800",
            "0x00000000000000000000000010960d511c1c447175bb9f59e842f3d381d8a42c"
          ],
          "data": "0x000000000000000000000000000000000000000000000015af1d78b58c400000",
          "blockHash": "0x662007c7d5f3cab3464502b08edca4e6967941eeb26c81bfe9968f202c3dfe58",
          "blockNumber": "0x2c272e3",
          "blockTimestamp": "0x69b0202f",
          "transactionHash": "0x300826b5629f7e5a92e167440314c7e5266b6c81b6face99ea6c48c1c3672afb",
          "transactionIndex": "0x3",
          "logIndex": "0x2",
          "removed": false
        },
        {
          "address": "0xac25bd28d5171821ecc9030933778d2ce242fa8a",
          "topics": [
            "0x57ab4c4d40a32ad167254ad966d3295c6b75a4b4be6f5b76b6ac9df41c29839e",
            "0x00000000000000000000000010960d511c1c447175bb9f59e842f3d381d8a42c",
            "0x33972942cefbf97c03ea29e76ef387aa1a01c5cb18256d3e1b76081ba0211727"
          ],
          "data": "0x000000000000000000000000000000000000000000000015af1d78b58c400000",
          "blockHash": "0x662007c7d5f3cab3464502b08edca4e6967941eeb26c81bfe9968f202c3dfe58",
          "blockNumber": "0x2c272e3",
          "blockTimestamp": "0x69b0202f",
          "transactionHash": "0x300826b5629f7e5a92e167440314c7e5266b6c81b6face99ea6c48c1c3672afb",
          "transactionIndex": "0x3",
          "logIndex": "0x3",
          "removed": false
        },
        {
          "address": "0xac25bd28d5171821ecc9030933778d2ce242fa8a",
          "topics": [
            "0x53f7cfc606524ccf2054da18d9def21a9c44db61e534d6085e99222dfbc30a29",
            "0x00000000000000000000000010960d511c1c447175bb9f59e842f3d381d8a42c",
            "0x33972942cefbf97c03ea29e76ef387aa1a01c5cb18256d3e1b76081ba0211727"
          ],
          "data": "0x0000000000000000000000000000000000000000000000a2a15d09519be000000000000000000000000000000000000000000000000000000de0b6b3a7640000",
          "blockHash": "0x662007c7d5f3cab3464502b08edca4e6967941eeb26c81bfe9968f202c3dfe58",
          "blockNumber": "0x2c272e3",
          "blockTimestamp": "0x69b0202f",
          "transactionHash": "0x300826b5629f7e5a92e167440314c7e5266b6c81b6face99ea6c48c1c3672afb",
          "transactionIndex": "0x3",
          "logIndex": "0x4",
          "removed": false
        },
        {
          "address": "0xac25bd28d5171821ecc9030933778d2ce242fa8a",
          "topics": [
            "0x51ef66df3aef8a95c6d8892ea5771b00fd637e9f04fed76e6701b2d8c1d0f753",
            "0x00000000000000000000000010960d511c1c447175bb9f59e842f3d381d8a42c",
            "0x33972942cefbf97c03ea29e76ef387aa1a01c5cb18256d3e1b76081ba0211727"
          ],
          "data": "0x0000000000000000000000000000000000000000000000a2a15d09519be000000000000000000000000000000000000000000000000000000de0b6b3a7640000",
          "blockHash": "0x662007c7d5f3cab3464502b08edca4e6967941eeb26c81bfe9968f202c3dfe58",
          "blockNumber": "0x2c272e3",
          "blockTimestamp": "0x69b0202f",
          "transactionHash": "0x300826b5629f7e5a92e167440314c7e5266b6c81b6face99ea6c48c1c3672afb",
          "transactionIndex": "0x3",
          "logIndex": "0x5",
          "removed": false
        }
      ],
      "logsBloom": "0x00400000000000000000000004000000040400000000080000000000000000200000000000000000000000000000000000000000000000000000000000000000000000000000000000000000000080000000000000000040000000000000000004000000000000000000000000000000000000000000020000000000000000000000002002000040000001000000000000000000000004000000000000000100000000000000000000000000000020000000000010000000000000000000000000000000000000000000000000000000000000000000000000000004000400000000000101000000800080000000000000400004000000000000040000000000",
      "type": "0x2",
      "transactionHash": "0x300826b5629f7e5a92e167440314c7e5266b6c81b6face99ea6c48c1c3672afb",
      "transactionIndex": "0x3",
      "blockHash": "0x662007c7d5f3cab3464502b08edca4e6967941eeb26c81bfe9968f202c3dfe58",
      "blockNumber": "0x2c272e3",
      "gasUsed": "0x2a325",
      "effectiveGasPrice": "0x7a121",
      "blobGasUsed": "0xa8c0",
      "from": "0x10960d511c1c447175bb9f59e842f3d381d8a42c",
      "to": "0xac25bd28d5171821ecc9030933778d2ce242fa8a",
      "contractAddress": null,
      "daFootprintGasScalar": "0x190",
      "l1BaseFeeScalar": "0x7d0",
      "l1BlobBaseFee": "0x1",
      "l1BlobBaseFeeScalar": "0xdbba0",
      "l1Fee": "0x8f",
      "l1GasPrice": "0xd",
      "l1GasUsed": "0x6cd"
    },
    {
      "status": "0x1",
      "cumulativeGasUsed": "0x2e0d9",
      "logs": [
        {
          "address": "0xe78663b6b31a67223f2a23e638142d5916484491",
          "topics": [
            "0x8c5be1e5ebec7d5bd14f71427d1e84f3dd0314c0f7b2291e5b200ac8c7c3b925",
            "0x0000000000000000000000008c76d725dbed2f3617200d300fb7bae4cb86d113",
            "0x000000000000000000000000ee661645166fbd92e712ecbcf786b9c1707997ef"
          ],
          "data": "0xffffffffffffffffffffffffffffffffffffffffffffffffffffffffffffffff",
          "blockHash": "0xcd31a02634d400e64a549494a1cf9528e0817872a0832d4ce604370a9f79ee90",
          "blockNumber": "0x2c272e6",
          "blockTimestamp": "0x69b02032",
          "transactionHash": "0xf1678979ea6b7f842199755018135918124505aa3cfbff6ac219ce07a6c148e1",
          "transactionIndex": "0x3",
          "logIndex": "0x1",
          "removed": false
        }
      ],
      "logsBloom": "0x00000000040000000000000000000000000000000000000000000000000000000000000000000000000000000000000000000000000100000000000000280000000000000000000000000000000000000000004000000000000000000000000000000000000000000000000000000000000000000000000000000000000000000000000000000001000000000000000000000000000000020000000000000000020000002000000000000000000000000000000000000000000000000000000000000000000000000000000000000000000000000000000000010000000000000010000000000000000000000000000000000000000000000000000000000080",
      "type": "0x2",
      "transactionHash": "0xf1678979ea6b7f842199755018135918124505aa3cfbff6ac219ce07a6c148e1",
      "transactionIndex": "0x3",
      "blockHash": "0xcd31a02634d400e64a549494a1cf9528e0817872a0832d4ce604370a9f79ee90",
      "blockNumber": "0x2c272e6",
      "gasUsed": "0x66ed",
      "effectiveGasPrice": "0x7a121",
      "blobGasUsed": "0x9c40",
      "from": "0x8c76d725dbed2f3617200d300fb7bae4cb86d113",
      "to": "0xe78663b6b31a67223f2a23e638142d5916484491",
      "contractAddress": null,
      "daFootprintGasScalar": "0x190",
      "l1BaseFeeScalar": "0x7d0",
      "l1BlobBaseFee": "0x1",
      "l1BlobBaseFeeScalar": "0xdbba0",
      "l1Fee": "0x83",
      "l1GasPrice": "0xd",
      "l1GasUsed": "0x640"
    },
    {
      "status": "0x1",
      "cumulativeGasUsed": "0x35772",
      "logs": [
        {
          "address": "0xe78663b6b31a67223f2a23e638142d5916484491",
          "topics": [
            "0xddf252ad1be2c89b69c2b068fc378daa952ba7f163c4a11628f55a4df523b3ef",
            "0x0000000000000000000000008c76d725dbed2f3617200d300fb7bae4cb86d113",
            "0x000000000000000000000000ee661645166fbd92e712ecbcf786b9c1707997ef"
          ],
          "data": "0x00000000000000000000000000000000000000000000003635c9adc5dea00000",
          "blockHash": "0x7ec063ebf43b048eef3d8c3d109f9b85052ceee5bf220e33d41606bd348ff9a0",
          "blockNumber": "0x2c272e9",
          "blockTimestamp": "0x69b02035",
          "transactionHash": "0xb5d61d2995367632ee5c9cbdb251c2e2505aed581b8255a71d045147ebadfb2f",
          "transactionIndex": "0x3",
          "logIndex": "0x1",
          "removed": false
        },
        {
          "address": "0xee661645166fbd92e712ecbcf786b9c1707997ef",
          "topics": [
            "0xd7243f6f8212d5188fd054141cf6ea89cfc0d91facb8c3afe2f88a1358480142",
            "0x0000000000000000000000008c76d725dbed2f3617200d300fb7bae4cb86d113"
          ],
          "data": "0x00000000000000000000000000000000000000000000003635c9adc5dea00000",
          "blockHash": "0x7ec063ebf43b048eef3d8c3d109f9b85052ceee5bf220e33d41606bd348ff9a0",
          "blockNumber": "0x2c272e9",
          "blockTimestamp": "0x69b02035",
          "transactionHash": "0xb5d61d2995367632ee5c9cbdb251c2e2505aed581b8255a71d045147ebadfb2f",
          "transactionIndex": "0x3",
          "logIndex": "0x2",
          "removed": false
        }
      ],
      "logsBloom": "0x00000000040000000000000004000000000000000000000000000000000000000000000000000000000000000000000000000000000100000000000000080000000000000000000000000008000000000000004000000040000000000000000000000000000000000000000000000000000000000000000000000010000000000000000000000041000000000000000000000000000000020000000000000000000000002000000000000000000000000000000000000000000000000000000000000012000000000000000000000000000000000040008000010000000000000000000000000000000000000000000000000000000000000000000000000080",
      "type": "0x2",
      "transactionHash": "0xb5d61d2995367632ee5c9cbdb251c2e2505aed581b8255a71d045147ebadfb2f",
      "transactionIndex": "0x3",
      "blockHash": "0x7ec063ebf43b048eef3d8c3d109f9b85052ceee5bf220e33d41606bd348ff9a0",
      "blockNumber": "0x2c272e9",
      "gasUsed": "0xdd86",
      "effectiveGasPrice": "0x7a121",
      "blobGasUsed": "0x9c40",
      "from": "0x8c76d725dbed2f3617200d300fb7bae4cb86d113",
      "to": "0xac25bd28d5171821ecc9030933778d2ce242fa8a",
      "contractAddress": null,
      "daFootprintGasScalar": "0x190",
      "l1BaseFeeScalar": "0x7d0",
      "l1BlobBaseFee": "0x1",
      "l1BlobBaseFeeScalar": "0xdbba0",
      "l1Fee": "0x83",
      "l1GasPrice": "0xd",
      "l1GasUsed": "0x640"
    },
    {
      "status": "0x1",
      "cumulativeGasUsed": "0x3e8fb",
      "logs": [
        {
          "address": "0xac25bd28d5171821ecc9030933778d2ce242fa8a",
          "topics": [
            "0x1042276b475e84e5861056cafd7c753ad24a4ec58b1dacc00bca94d41823e9ce",
            "0x0000000000000000000000008c76d725dbed2f3617200d300fb7bae4cb86d113",
            "0x33972942cefbf97c03ea29e76ef387aa1a01c5cb18256d3e1b76081ba0211727"
          ],
          "data": "0x0000000000000000000000000000000000000000000000000000000000000000",
          "blockHash": "0xe316f711f462ba67d8ef49d08d969f7384408c588d48ec72256e8463a9df0c5b",
          "blockNumber": "0x2c272ec",
          "blockTimestamp": "0x69b02038",
          "transactionHash": "0x8487ac23701aaa1cd84a3bffb3876200d72dcc4aa8abd6d76e1219005b0a7fd8",
          "transactionIndex": "0x3",
          "logIndex": "0x1",
          "removed": false
        },
        {
          "address": "0xee661645166fbd92e712ecbcf786b9c1707997ef",
          "topics": [
            "0x2251f6a4ed7fe619e9e8ce557d05a63dd484284f9c95c9ab334f6a7707cd0800",
            "0x0000000000000000000000008c76d725dbed2f3617200d300fb7bae4cb86d113"
          ],
          "data": "0x000000000000000000000000000000000000000000000015af1d78b58c400000",
          "blockHash": "0xe316f711f462ba67d8ef49d08d969f7384408c588d48ec72256e8463a9df0c5b",
          "blockNumber": "0x2c272ec",
          "blockTimestamp": "0x69b02038",
          "transactionHash": "0x8487ac23701aaa1cd84a3bffb3876200d72dcc4aa8abd6d76e1219005b0a7fd8",
          "transactionIndex": "0x3",
          "logIndex": "0x2",
          "removed": false
        },
        {
          "address": "0xac25bd28d5171821ecc9030933778d2ce242fa8a",
          "topics": [
            "0x57ab4c4d40a32ad167254ad966d3295c6b75a4b4be6f5b76b6ac9df41c29839e",
            "0x0000000000000000000000008c76d725dbed2f3617200d300fb7bae4cb86d113",
            "0x33972942cefbf97c03ea29e76ef387aa1a01c5cb18256d3e1b76081ba0211727"
          ],
          "data": "0x000000000000000000000000000000000000000000000015af1d78b58c400000",
          "blockHash": "0xe316f711f462ba67d8ef49d08d969f7384408c588d48ec72256e8463a9df0c5b",
          "blockNumber": "0x2c272ec",
          "blockTimestamp": "0x69b02038",
          "transactionHash": "0x8487ac23701aaa1cd84a3bffb3876200d72dcc4aa8abd6d76e1219005b0a7fd8",
          "transactionIndex": "0x3",
          "logIndex": "0x3",
          "removed": false
        },
        {
          "address": "0xac25bd28d5171821ecc9030933778d2ce242fa8a",
          "topics": [
            "0x53f7cfc606524ccf2054da18d9def21a9c44db61e534d6085e99222dfbc30a29",
            "0x0000000000000000000000008c76d725dbed2f3617200d300fb7bae4cb86d113",
            "0x33972942cefbf97c03ea29e76ef387aa1a01c5cb18256d3e1b76081ba0211727"
          ],
          "data": "0xffffffffffffffffffffffffffffffffffffffffffffff2728d948e8858000000000000000000000000000000000000000000000000000000de0b6b3a7640000",
          "blockHash": "0xe316f711f462ba67d8ef49d08d969f7384408c588d48ec72256e8463a9df0c5b",
          "blockNumber": "0x2c272ec",
          "blockTimestamp": "0x69b02038",
          "transactionHash": "0x8487ac23701aaa1cd84a3bffb3876200d72dcc4aa8abd6d76e1219005b0a7fd8",
          "transactionIndex": "0x3",
          "logIndex": "0x4",
          "removed": false
        },
        {
          "address": "0xac25bd28d5171821ecc9030933778d2ce242fa8a",
          "topics": [
            "0x51ef66df3aef8a95c6d8892ea5771b00fd637e9f04fed76e6701b2d8c1d0f753",
            "0x0000000000000000000000008c76d725dbed2f3617200d300fb7bae4cb86d113",
            "0x33972942cefbf97c03ea29e76ef387aa1a01c5cb18256d3e1b76081ba0211727"
          ],
          "data": "0xffffffffffffffffffffffffffffffffffffffffffffff2728d948e8858000000000000000000000000000000000000000000000000000000de0b6b3a7640000",
          "blockHash": "0xe316f711f462ba67d8ef49d08d969f7384408c588d48ec72256e8463a9df0c5b",
          "blockNumber": "0x2c272ec",
          "blockTimestamp": "0x69b02038",
          "transactionHash": "0x8487ac23701aaa1cd84a3bffb3876200d72dcc4aa8abd6d76e1219005b0a7fd8",
          "transactionIndex": "0x3",
          "logIndex": "0x5",
          "removed": false
        }
      ],
      "logsBloom": "0x00400000000000000000000004000000040400000000000000000000000000200000000000000000000000000000000000000000000000000000000000000000000000000000000000000000000080000000004000000040000000000000000004000000000000000000000000000000000000000000020000000000400000000000002002000040000000000000000000000000000004000000000000000120000000002000000000000000000020000000000010000000000000000000000000000000000000000000000000000000000000000000000000000004000000000000000000000000800080000000000000400004000000400000000000000080",
      "type": "0x2",
      "transactionHash": "0x8487ac23701aaa1cd84a3bffb3876200d72dcc4aa8abd6d76e1219005b0a7fd8",
      "transactionIndex": "0x3",
      "blockHash": "0xe316f711f462ba67d8ef49d08d969f7384408c588d48ec72256e8463a9df0c5b",
      "blockNumber": "0x2c272ec",
      "gasUsed": "0x16f03",
      "effectiveGasPrice": "0x7a121",
      "blobGasUsed": "0x9f60",
      "from": "0x8c76d725dbed2f3617200d300fb7bae4cb86d113",
      "to": "0xac25bd28d5171821ecc9030933778d2ce242fa8a",
      "contractAddress": null,
      "daFootprintGasScalar": "0x190",
      "l1BaseFeeScalar": "0x7d0",
      "l1BlobBaseFee": "0x1",
      "l1BlobBaseFeeScalar": "0xdbba0",
      "l1Fee": "0x87",
      "l1GasPrice": "0xd",
      "l1GasUsed": "0x66f"
    },
    {
      "status": "0x1",
      "cumulativeGasUsed": "0x2f093",
      "logs": [
        {
          "address": "0xac25bd28d5171821ecc9030933778d2ce242fa8a",
          "topics": [
            "0xe44a72dedd13d73dc8f7a34a73ec39f494980252f270dbe4810e1ce7cd07252b",
            "0x33972942cefbf97c03ea29e76ef387aa1a01c5cb18256d3e1b76081ba0211727"
          ],
          "data": "0x0000000000000000000000000000000000000000000000000de0b6b3a7640000",
          "blockHash": "0x2b6e8ecc25baa669d4214ac6701c6d8d9bd02ad5e953c62406c6f27f119e6ff7",
          "blockNumber": "0x2c272ef",
          "blockTimestamp": "0x69b0203b",
          "transactionHash": "0x9b0f651942da0b004509c7463e638e1af4eb12a494e4fee723f1d51b1f7afe47",
          "transactionIndex": "0x3",
          "logIndex": "0x1",
          "removed": false
        }
      ],
      "logsBloom": "0x00000000000000000000000000000000240400000000000000000000000000000000000000000000000000000000000000000000000000000000000000000000000000000000000000000000000000000000000000000000000000000000000000000000000000000000000000000000000000000000000000000000000000000000000002000000000000000000000000000000000004000000010000000000000000000000000000000000000000000000000010000000000000000000000000000000000000000000000000020000000000000000000000000000000000000000000000000000000080000000000000000000000000000000000000000000",
      "type": "0x2",
      "transactionHash": "0x9b0f651942da0b004509c7463e638e1af4eb12a494e4fee723f1d51b1f7afe47",
      "transactionIndex": "0x3",
      "blockHash": "0x2b6e8ecc25baa669d4214ac6701c6d8d9bd02ad5e953c62406c6f27f119e6ff7",
      "blockNumber": "0x2c272ef",
      "gasUsed": "0x769b",
      "effectiveGasPrice": "0x7a121",
      "blobGasUsed": "0x9c40",
      "from": "0x4b992f2fbf714c0fcbb23bac5130ace48cad00cd",
      "to": "0xac25bd28d5171821ecc9030933778d2ce242fa8a",
      "contractAddress": null,
      "daFootprintGasScalar": "0x190",
      "l1BaseFeeScalar": "0x7d0",
      "l1BlobBaseFee": "0x1",
      "l1BlobBaseFeeScalar": "0xdbba0",
      "l1Fee": "0x83",
      "l1GasPrice": "0xd",
      "l1GasUsed": "0x640"
    },
    {
      "status": "0x1",
      "cumulativeGasUsed": "0x2e465",
      "logs": [
        {
          "address": "0xac25bd28d5171821ecc9030933778d2ce242fa8a",
          "topics": [
            "0x4eab7b127c764308788622363ad3e9532de3dfba7845bd4f84c125a22544255a",
            "0x0000000000000000000000004b992f2fbf714c0fcbb23bac5130ace48cad00cd"
          ],
          "data": "0x",
          "blockHash": "0x41b75086d85375e15cd757bb140a77f76f6f0353dd81409682cc15ee21831718",
          "blockNumber": "0x2c272f2",
          "blockTimestamp": "0x69b0203e",
          "transactionHash": "0xec5a273d851fef281634ce27fae986f4d3c62b50899c2cd43ccdfc704e350fd1",
          "transactionIndex": "0x3",
          "logIndex": "0x1",
          "removed": false
        }
      ],
      "logsBloom": "0x00000000000000000000000000000000000400000000000000000000000000000000000000000000000000000000000000000002000000000000000000000000000000000000000000000000000000000000000000000000000100000000000000000000000000000000000000020000000000000000000000000000000000000000000000000000000000400000000000000000000000000000000000000000000000000000008000000000000000000000000010000000000000000000000000004000000000000000000000000000000000000000000000000000000000000000000000000000000080000000000000000000000000000000000000000000",
      "type": "0x2",
      "transactionHash": "0xec5a273d851fef281634ce27fae986f4d3c62b50899c2cd43ccdfc704e350fd1",
      "transactionIndex": "0x3",
      "blockHash": "0x41b75086d85375e15cd757bb140a77f76f6f0353dd81409682cc15ee21831718",
      "blockNumber": "0x2c272f2",
      "gasUsed": "0x6a79",
      "effectiveGasPrice": "0x7a121",
      "blobGasUsed": "0x9c40",
      "from": "0x4b992f2fbf714c0fcbb23bac5130ace48cad00cd",
      "to": "0xac25bd28d5171821ecc9030933778d2ce242fa8a",
      "contractAddress": null,
      "daFootprintGasScalar": "0x190",
      "l1BaseFeeScalar": "0x7d0",
      "l1BlobBaseFee": "0x1",
      "l1BlobBaseFeeScalar": "0xdbba0",
      "l1Fee": "0x83",
      "l1GasPrice": "0xd",
      "l1GasUsed": "0x640"
    },
    {
      "status": "0x1",
      "cumulativeGasUsed": "0x30234",
      "logs": [
        {
          "address": "0xac25bd28d5171821ecc9030933778d2ce242fa8a",
          "topics": [
            "0x7e3b37ff982592cf8b07b654e23550e253ed705a9d04560247e79beed3919261",
            "0x33972942cefbf97c03ea29e76ef387aa1a01c5cb18256d3e1b76081ba0211727"
          ],
          "data": "0x00000000000000000000000000000000000000000000000006ccd46763f0ffff0000000000000000000000000000000000000000000000000000000000000000",
          "blockHash": "0x60b040a0463cf11119ae9f047dc76e4b018e4f9b67362455bec902ca3e224926",
          "blockNumber": "0x2c272f5",
          "blockTimestamp": "0x69b02041",
          "transactionHash": "0x2d8945f0220850556f3e724835a1d3ebd808b3665ffb55a5aeb2a15b02768ccd",
          "transactionIndex": "0x3",
          "logIndex": "0x1",
          "removed": false
        }
      ],
      "logsBloom": "0x00000000000000000000000000000000040400000000000000000000000010000000000000000000000000000000000000000000000000000000000000000000000000000000000000000000000000000000000000000000000000000000400000000000000000000000000000000000400000000000000000000000000000000000000002000000000000000000000000000000000004000000000000000000000000000000000000000000000000000000000010000000000000000000000000000000000000000000000000000000000000000000000000000000000000000000000000000000000080000000000000000000000000000000000000000000",
      "type": "0x2",
      "transactionHash": "0x2d8945f0220850556f3e724835a1d3ebd808b3665ffb55a5aeb2a15b02768ccd",
      "transactionIndex": "0x3",
      "blockHash": "0x60b040a0463cf11119ae9f047dc76e4b018e4f9b67362455bec902ca3e224926",
      "blockNumber": "0x2c272f5",
      "gasUsed": "0x883c",
      "effectiveGasPrice": "0x7a121",
      "blobGasUsed": "0xe420",
      "from": "0x4b992f2fbf714c0fcbb23bac5130ace48cad00cd",
      "to": "0xac25bd28d5171821ecc9030933778d2ce242fa8a",
      "contractAddress": null,
      "daFootprintGasScalar": "0x190",
      "l1BaseFeeScalar": "0x7d0",
      "l1BlobBaseFee": "0x1",
      "l1BlobBaseFeeScalar": "0xdbba0",
      "l1Fee": "0xc0",
      "l1GasPrice": "0xd",
      "l1GasUsed": "0x927"
    },
    {
      "status": "0x1",
      "cumulativeGasUsed": "0x2fc83",
      "logs": [],
      "logsBloom": "0x00000000000000000000000000000000000000000000000000000000000000000000000000000000000000000000000000000000000000000000000000000000000000000000000000000000000000000000000000000000000000000000000000000000000000000000000000000000000000000000000000000000000000000000000000000000000000000000000000000000000000000000000000000000000000000000000000000000000000000000000000000000000000000000000000000000000000000000000000000000000000000000000000000000000000000000000000000000000000000000000000000000000000000000000000000000",
      "type": "0x2",
      "transactionHash": "0xcda251d1fc24804d1c49fd972eb2fa9efb929d2072a929705bdfd7a3184a2f89",
      "transactionIndex": "0x3",
      "blockHash": "0x6094895491cbd61ae409cb781df7d72437f316575eca21b91b4aea0672730a97",
      "blockNumber": "0x2c272f8",
      "gasUsed": "0x828b",
      "effectiveGasPrice": "0x7a121",
      "blobGasUsed": "0x9c40",
      "from": "0x4b992f2fbf714c0fcbb23bac5130ace48cad00cd",
      "to": "0xac25bd28d5171821ecc9030933778d2ce242fa8a",
      "contractAddress": null,
      "daFootprintGasScalar": "0x190",
      "l1BaseFeeScalar": "0x7d0",
      "l1BlobBaseFee": "0x1",
      "l1BlobBaseFeeScalar": "0xdbba0",
      "l1Fee": "0x83",
      "l1GasPrice": "0xd",
      "l1GasUsed": "0x640"
    },
    {
      "status": "0x1",
      "cumulativeGasUsed": "0x3d3e5",
      "logs": [
        {
          "address": "0xac25bd28d5171821ecc9030933778d2ce242fa8a",
          "topics": [
            "0x1042276b475e84e5861056cafd7c753ad24a4ec58b1dacc00bca94d41823e9ce",
            "0x00000000000000000000000010960d511c1c447175bb9f59e842f3d381d8a42c",
            "0x33972942cefbf97c03ea29e76ef387aa1a01c5cb18256d3e1b76081ba0211727"
          ],
          "data": "0x0000000000000000000000000000000000000000000000000000000000000000",
          "blockHash": "0xae8fb12b2dd7c4ef4da31cc4166a71ea65b6730050c8081f437bb9f074d04c6e",
          "blockNumber": "0x2c272fb",
          "blockTimestamp": "0x69b02047",
          "transactionHash": "0x3380cfda9fa83962b1c8fd274a5f00288efccb602ad5b19451f76a9c3d081e77",
          "transactionIndex": "0x3",
          "logIndex": "0x1",
          "removed": false
        },
        {
          "address": "0xac25bd28d5171821ecc9030933778d2ce242fa8a",
          "topics": [
            "0xbbd196e17ea2db77c92d1902d6a040c94461f6008ce76a565195bd2dd20bc54a",
            "0x00000000000000000000000010960d511c1c447175bb9f59e842f3d381d8a42c",
            "0x0000000000000000000000004b992f2fbf714c0fcbb23bac5130ace48cad00cd",
            "0x33972942cefbf97c03ea29e76ef387aa1a01c5cb18256d3e1b76081ba0211727"
          ],
          "data": "0xffffffffffffffffffffffffffffffffffffffffffffffc2be198aff2097f44800000000000000000000000000000000000000000000003d41e67500df680bb8",
          "blockHash": "0xae8fb12b2dd7c4ef4da31cc4166a71ea65b6730050c8081f437bb9f074d04c6e",
          "blockNumber": "0x2c272fb",
          "blockTimestamp": "0x69b02047",
          "transactionHash": "0x3380cfda9fa83962b1c8fd274a5f00288efccb602ad5b19451f76a9c3d081e77",
          "transactionIndex": "0x3",
          "logIndex": "0x2",
          "removed": false
        },
        {
          "address": "0x0d428e4ee3da759831bdbf0e75aecf91dda24764",
          "topics": [
            "0x390f862d0f5a1e8d6065fbbde56194d2f11e54bdd809216674705586679431cc",
            "0x0000000000000000000000004b992f2fbf714c0fcbb23bac5130ace48cad00cd",
            "0x00000000000000000000000010960d511c1c447175bb9f59e842f3d381d8a42c",
            "0x33972942cefbf97c03ea29e76ef387aa1a01c5cb18256d3e1b76081ba0211727"
          ],
          "data": "0x",
          "blockHash": "0xae8fb12b2dd7c4ef4da31cc4166a71ea65b6730050c8081f437bb9f074d04c6e",
          "blockNumber": "0x2c272fb",
          "blockTimestamp": "0x69b02047",
          "transactionHash": "0x3380cfda9fa83962b1c8fd274a5f00288efccb602ad5b19451f76a9c3d081e77",
          "transactionIndex": "0x3",
          "logIndex": "0x3",
          "removed": false
        }
      ],
      "logsBloom": "0x00000000000000000000000000000000040400000000080000000000000000000000000000000000000000000000000000000002000000020000000000000000000000000000000000000000000000000000000000000000000100000002000000000000000000000000000000020000000000000000000000000000400000000000000002000000000001000000000000000000000004000080000000000020100000000000000000000000400000000000000010000000000000000000000000000000000000000000000000000000000000000000000002000000000000000000000000000000000080004000000000000000000000400000040000400001",
      "type": "0x2",
      "transactionHash": "0x3380cfda9fa83962b1c8fd274a5f00288efccb602ad5b19451f76a9c3d081e77",
      "transactionIndex": "0x3",
      "blockHash": "0xae8fb12b2dd7c4ef4da31cc4166a71ea65b6730050c8081f437bb9f074d04c6e",
      "blockNumber": "0x2c272fb",
      "gasUsed": "0x159ed",
      "effectiveGasPrice": "0x7a121",
      "blobGasUsed": "0xa280",
      "from": "0x4b992f2fbf714c0fcbb23bac5130ace48cad00cd",
      "to": "0x0d428e4ee3da759831bdbf0e75aecf91dda24764",
      "contractAddress": null,
      "daFootprintGasScalar": "0x190",
      "l1BaseFeeScalar": "0x7d0",
      "l1BlobBaseFee": "0x1",
      "l1BlobBaseFeeScalar": "0xdbba0",
      "l1Fee": "0x89",
      "l1GasPrice": "0xd",
      "l1GasUsed": "0x68a"
    }
  ],
  "libraries": [],
  "pending": [],
  "returns": {},
  "timestamp": 1773150280092,
  "chain": 1301,
  "commit": "2a5c419"
}