{
  "transactions": [
    {
      "hash": "0xd21e7f2f8fc274c44fc53c891556a5ef37187df15250bbd8ed56ab459d26195b",
      "transactionType": "CALL",
      "contractName": null,
      "contractAddress": "0xe78663b6b31a67223f2a23e638142d5916484491",
      "function": "mint(address,uint256)",
      "arguments": [
        "0x4b992F2Fbf714C0fCBb23baC5130Ace48CaD00cd",
        "1000000000000000000000000"
      ],
      "transaction": {
        "from": "0x4b992f2fbf714c0fcbb23bac5130ace48cad00cd",
        "to": "0xe78663b6b31a67223f2a23e638142d5916484491",
        "value": "0x0",
        "input": "0x40c10f190000000000000000000000004b992f2fbf714c0fcbb23bac5130ace48cad00cd00000000000000000000000000000000000000000000d3c21bcecceda1000000",
        "nonce": "0x146",
        "chainId": "0x515"
      },
      "additionalContracts": [],
      "isFixedGasLimit": false
    },
    {
      "hash": "0x9a5b4eccb7eac4e0cb0c336846dde5d9be526f4cf932c53052d1fa4c887812a5",
      "transactionType": "CALL",
      "contractName": null,
      "contractAddress": "0xe78663b6b31a67223f2a23e638142d5916484491",
      "function": "approve(address,uint256)",
      "arguments": [
        "0xee661645166FBD92E712ecBCF786b9C1707997eF",
        "115792089237316195423570985008687907853269984665640564039457584007913129639935"
      ],
      "transaction": {
        "from": "0x4b992f2fbf714c0fcbb23bac5130ace48cad00cd",
        "to": "0xe78663b6b31a67223f2a23e638142d5916484491",
        "value": "0x0",
        "input": "0x095ea7b3000000000000000000000000ee661645166fbd92e712ecbcf786b9c1707997efffffffffffffffffffffffffffffffffffffffffffffffffffffffffffffffff",
        "nonce": "0x147",
        "chainId": "0x515"
      },
      "additionalContracts": [],
      "isFixedGasLimit": false
    },
    {
      "hash": "0xe64a27d9fdfcf681ccfcc3ca6edf92b2e5fceb55ba1a22fda16da5628df9b1be",
      "transactionType": "CALL",
      "contractName": null,
      "contractAddress": "0xee661645166fbd92e712ecbcf786b9c1707997ef",
      "function": "depositInsurance(uint256)",
      "arguments": [
        "500000000000000000000000"
      ],
      "transaction": {
        "from": "0x4b992f2fbf714c0fcbb23bac5130ace48cad00cd",
        "to": "0xee661645166fbd92e712ecbcf786b9c1707997ef",
        "value": "0x0",
        "input": "0x0ae40be10000000000000000000000000000000000000000000069e10de76676d0800000",
        "nonce": "0x148",
        "chainId": "0x515"
      },
      "additionalContracts": [],
      "isFixedGasLimit": false
    },
    {
      "hash": "0xc0b7edf207c94278a7b81d96443aa2eb731c184d47d7185230e8d7cc6b5f2b41",
      "transactionType": "CALL",
      "contractName": null,
      "contractAddress": "0xe78663b6b31a67223f2a23e638142d5916484491",
      "function": "mint(address,uint256)",
      "arguments": [
        "0x10960d511C1c447175bB9F59E842F3D381D8a42c",
        "5000000000000000000000"
      ],
      "transaction": {
        "from": "0x4b992f2fbf714c0fcbb23bac5130ace48cad00cd",
        "to": "0xe78663b6b31a67223f2a23e638142d5916484491",
        "value": "0x0",
        "input": "0x40c10f1900000000000000000000000010960d511c1c447175bb9f59e842f3d381d8a42c00000000000000000000000000000000000000000000010f0cf064dd59200000",
        "nonce": "0x149",
        "chainId": "0x515"
      },
      "additionalContracts": [],
      "isFixedGasLimit": false
    },
    {
      "hash": "0x6f8f666e901d0fba48536c5f1553a7e216c9899b92dcd11b3e1a66618c116455",
      "transactionType": "CALL",
      "contractName": null,
      "contractAddress": "0xe78663b6b31a67223f2a23e638142d5916484491",
      "function": "mint(address,uint256)",
      "arguments": [
        "0x8c76D725Dbed2F3617200d300fB7BAE4CB86d113",
        "5000000000000000000000"
      ],
      "transaction": {
        "from": "0x4b992f2fbf714c0fcbb23bac5130ace48cad00cd",
        "to": "0xe78663b6b31a67223f2a23e638142d5916484491",
        "value": "0x0",
        "input": "0x40c10f190000000000000000000000008c76d725dbed2f3617200d300fb7bae4cb86d11300000000000000000000000000000000000000000000010f0cf064dd59200000",
        "nonce": "0x14a",
        "chainId": "0x515"
      },
      "additionalContracts": [],
      "isFixedGasLimit": false
    },
    {
      "hash": "0x153ba05a2e090ef916060f88af74f3a7c1cf9802a0512f71b6f257f580acd40c",
      "transactionType": "CALL",
      "contractName": null,
      "contractAddress": "0xe78663b6b31a67223f2a23e638142d5916484491",
      "function": "approve(address,uint256)",
      "arguments": [
        "0xee661645166FBD92E712ecBCF786b9C1707997eF",
        "115792089237316195423570985008687907853269984665640564039457584007913129639935"
      ],
      "transaction": {
        "from": "0x10960d511c1c447175bb9f59e842f3d381d8a42c",
        "to": "0xe78663b6b31a67223f2a23e638142d5916484491",
        "value": "0x0",
        "input": "0x095ea7b3000000000000000000000000ee661645166fbd92e712ecbcf786b9c1707997efffffffffffffffffffffffffffffffffffffffffffffffffffffffffffffffff",
        "nonce": "0x0",
        "chainId": "0x515"
      },
      "additionalContracts": [],
      "isFixedGasLimit": false
    },
    {
      "hash": "0x6a15d2b649c9b2a6eda6125453ee77d768fe62e3d37ab76ffe3289f31d062fc7",
      "transactionType": "CALL",
      "contractName": null,
      "contractAddress": "0xac25bd28d5171821ecc9030933778d2ce242fa8a",
      "function": "depositCollateral(uint256)",
      "arguments": [
        "1000000000000000000000"
      ],
      "transaction": {
        "from": "0x10960d511c1c447175bb9f59e842f3d381d8a42c",
        "to": "0xac25bd28d5171821ecc9030933778d2ce242fa8a",
        "value": "0x0",
        "input": "0xbad4a01f00000000000000000000000000000000000000000000003635c9adc5dea00000",
        "nonce": "0x1",
        "chainId": "0x515"
      },
      "additionalContracts": [],
      "isFixedGasLimit": false
    },
    {
      "hash": "0x3c9b0a35cf2fe48202d3107abc3400877f7b4ea0d168ee500f29ce2dff0824aa",
      "transactionType": "CALL",
      "contractName": null,
      "contractAddress": "0xac25bd28d5171821ecc9030933778d2ce242fa8a",
      "function": "openPosition(bytes32,bool,uint256,uint256)",
      "arguments": [
        "0x33972942cefbf97c03ea29e76ef387aa1a01c5cb18256d3e1b76081ba0211727",
        "true",
        "3000000000000000000000",
        "400000000000000000000"
      ],
      "transaction": {
        "from": "0x10960d511c1c447175bb9f59e842f3d381d8a42c",
        "to": "0xac25bd28d5171821ecc9030933778d2ce242fa8a",
        "value": "0x0",
        "input": "0x2f998c2b33972942cefbf97c03ea29e76ef387aa1a01c5cb18256d3e1b76081ba021172700000000000000000000000000000000000000000000000000000000000000010000000000000000000000000000000000000000000000a2a15d09519be00000000000000000000000000000000000000000000000000015af1d78b58c400000",
        "nonce": "0x2",
        "chainId": "0x515"
      },
      "additionalContracts": [],
      "isFixedGasLimit": false
    },
    {
      "hash": "0x93c6c83593d6d92aeb6a49919aabe53ddef63e52fb762d88e7971747b3a91260",
      "transactionType": "CALL",
      "contractName": null,
      "contractAddress": "0xe78663b6b31a67223f2a23e638142d5916484491",
      "function": "approve(address,uint256)",
      "arguments": [
        "0xee661645166FBD92E712ecBCF786b9C1707997eF",
        "115792089237316195423570985008687907853269984665640564039457584007913129639935"
      ],
      "transaction": {
        "from": "0x8c76d725dbed2f3617200d300fb7bae4cb86d113",
        "to": "0xe78663b6b31a67223f2a23e638142d5916484491",
        "value": "0x0",
        "input": "0x095ea7b3000000000000000000000000ee661645166fbd92e712ecbcf786b9c1707997efffffffffffffffffffffffffffffffffffffffffffffffffffffffffffffffff",
        "nonce": "0x0",
        "chainId": "0x515"
      },
      "additionalContracts": [],
      "isFixedGasLimit": false
    },
    {
      "hash": "0xb01c8300a7f03202cadf22035a79584b80be73955236561ed5c679b9ca8db250",
      "transactionType": "CALL",
      "contractName": null,
      "contractAddress": "0xac25bd28d5171821ecc9030933778d2ce242fa8a",
      "function": "depositCollateral(uint256)",
      "arguments": [
        "1000000000000000000000"
      ],
      "transaction": {
        "from": "0x8c76d725dbed2f3617200d300fb7bae4cb86d113",
        "to": "0xac25bd28d5171821ecc9030933778d2ce242fa8a",
        "value": "0x0",
        "input": "0xbad4a01f00000000000000000000000000000000000000000000003635c9adc5dea00000",
        "nonce": "0x1",
        "chainId": "0x515"
      },
      "additionalContracts": [],
      "isFixedGasLimit": false
    },
    {
      "hash": "0xf3bfc1dd0f69121d8ca2357706c2f969e08f9f21e0ce3a977acdaf752e1fcd6a",
      "transactionType": "CALL",
      "contractName": null,
      "contractAddress": "0xac25bd28d5171821ecc9030933778d2ce242fa8a",
      "function": "openPosition(bytes32,bool,uint256,uint256)",
      "arguments": [
        "0x33972942cefbf97c03ea29e76ef387aa1a01c5cb18256d3e1b76081ba0211727",
        "false",
        "2000000000000000000000",
        "400000000000000000000"
      ],
      "transaction": {
        "from": "0x8c76d725dbed2f3617200d300fb7bae4cb86d113",
        "to": "0xac25bd28d5171821ecc9030933778d2ce242fa8a",
        "value": "0x0",
        "input": "0x2f998c2b33972942cefbf97c03ea29e76ef387aa1a01c5cb18256d3e1b76081ba0211727000000000000000000000000000000000000000000000000000000000000000000000000000000000000000000000000000000000000006c6b935b8bbd400000000000000000000000000000000000000000000000000015af1d78b58c400000",
        "nonce": "0x2",
        "chainId": "0x515"
      },
      "additionalContracts": [],
      "isFixedGasLimit": false
    },
    {
      "hash": "0x010d5ad600daa10e156ad147646952f86f145a5d8d651295613a676a5b91d44a",
      "transactionType": "CALL",
      "contractName": null,
      "contractAddress": "0xac25bd28d5171821ecc9030933778d2ce242fa8a",
      "function": "setIndexPrice(bytes32,uint256)",
      "arguments": [
        "0x33972942cefbf97c03ea29e76ef387aa1a01c5cb18256d3e1b76081ba0211727",
        "1000000000000000000"
      ],
      "transaction": {
        "from": "0x4b992f2fbf714c0fcbb23bac5130ace48cad00cd",
        "to": "0xac25bd28d5171821ecc9030933778d2ce242fa8a",
        "value": "0x0",
        "input": "0xa6734caa33972942cefbf97c03ea29e76ef387aa1a01c5cb18256d3e1b76081ba02117270000000000000000000000000000000000000000000000000de0b6b3a7640000",
        "nonce": "0x14b",
        "chainId": "0x515"
      },
      "additionalContracts": [],
      "isFixedGasLimit": false
    },
    {
      "hash": "0xd8d3c262fd18c7b9304c09af7c086d3bfa4913c7ffca6e4e3efa91a55642f1d1",
      "transactionType": "CALL",
      "contractName": null,
      "contractAddress": "0xac25bd28d5171821ecc9030933778d2ce242fa8a",
      "function": "setHook(address)",
      "arguments": [
        "0x4b992F2Fbf714C0fCBb23baC5130Ace48CaD00cd"
      ],
      "transaction": {
        "from": "0x4b992f2fbf714c0fcbb23bac5130ace48cad00cd",
        "to": "0xac25bd28d5171821ecc9030933778d2ce242fa8a",
        "value": "0x0",
        "input": "0x3dfd38730000000000000000000000004b992f2fbf714c0fcbb23bac5130ace48cad00cd",
        "nonce": "0x14c",
        "chainId": "0x515"
      },
      "additionalContracts": [],
      "isFixedGasLimit": false
    },
    {
      "hash": "0x9012236a14428f03f39f722847d3a1b90d67554ad359c1c0ca957372f1a7921f",
      "transactionType": "CALL",
      "contractName": null,
      "contractAddress": "0xac25bd28d5171821ecc9030933778d2ce242fa8a",
      "function": "captureMarkPriceFromHook((address,address,uint24,int24,address),uint160,int24)",
      "arguments": [
        "(0xBdEea35F47E305791080c74B2551a521C406B7a2, 0xCc84E73F16F0C52f49130Ee39e379b4497fa6299, 3000, 60, 0x1FFcDC8fddFDF5B171eD90aF03B498E0C1c6C0c0)",
        "55459713759985036315480765235",
        "0"
      ],
      "transaction": {
        "from": "0x4b992f2fbf714c0fcbb23bac5130ace48cad00cd",
        "to": "0xac25bd28d5171821ecc9030933778d2ce242fa8a",
        "value": "0x0",
        "input": "0x41cb8dfc000000000000000000000000bdeea35f47e305791080c74b2551a521c406b7a2000000000000000000000000cc84e73f16f0c52f49130ee39e379b4497fa62990000000000000000000000000000000000000000000000000000000000000bb8000000000000000000000000000000000000000000000000000000000000003c0000000000000000000000001ffcdc8fddfdf5b171ed90af03b498e0c1c6c0c00000000000000000000000000000000000000000b333333333333333333333330000000000000000000000000000000000000000000000000000000000000000",
        "nonce": "0x14d",
        "chainId": "0x515"
      },
      "additionalContracts": [],
      "isFixedGasLimit": false
    },
    {
      "hash": "0x58078b43c5efc4bf3c02638a1d2ef5d25408c6878b628263376aca1563773a52",
      "transactionType": "CALL",
      "contractName": null,
      "contractAddress": "0xac25bd28d5171821ecc9030933778d2ce242fa8a",
      "function": "updateFunding(bytes32)",
      "arguments": [
        "0x33972942cefbf97c03ea29e76ef387aa1a01c5cb18256d3e1b76081ba0211727"
      ],
      "transaction": {
        "from": "0x4b992f2fbf714c0fcbb23bac5130ace48cad00cd",
        "to": "0xac25bd28d5171821ecc9030933778d2ce242fa8a",
        "value": "0x0",
        "input": "0xf98cecbe33972942cefbf97c03ea29e76ef387aa1a01c5cb18256d3e1b76081ba0211727",
        "nonce": "0x14e",
        "chainId": "0x515"
      },
      "additionalContracts": [],
      "isFixedGasLimit": false
    },
    {
      "hash": "0xe8d1d9348225740fd72a19fa75060d9b969b341a0524e275b571b026669d3860",
      "transactionType": "CALL",
      "contractName": null,
      "contractAddress": "0x0d428e4ee3da759831bdbf0e75aecf91dda24764",
      "function": "liquidate(address,bytes32)",
      "arguments": [
        "0x10960d511C1c447175bB9F59E842F3D381D8a42c",
        "0x33972942cefbf97c03ea29e76ef387aa1a01c5cb18256d3e1b76081ba0211727"
      ],
      "transaction": {
        "from": "0x4b992f2fbf714c0fcbb23bac5130ace48cad00cd",
        "to": "0x0d428e4ee3da759831bdbf0e75aecf91dda24764",
        "value": "0x0",
        "input": "0x3af8c7a600000000000000000000000010960d511c1c447175bb9f59e842f3d381d8a42c33972942cefbf97c03ea29e76ef387aa1a01c5cb18256d3e1b76081ba0211727",
        "nonce": "0x14f",
        "chainId": "0x515"
      },
      "additionalContracts": [],
      "isFixedGasLimit": false
    }
  ],
  "receipts": [
    {
      "status": "0x1",
      "cumulativeGasUsed": "0x3840b",
      "logs": [
        {
          "address": "0xe78663b6b31a67223f2a23e638142d5916484491",
          "topics": [
            "0xddf252ad1be2c89b69c2b068fc378daa952ba7f163c4a11628f55a4df523b3ef",
            "0x0000000000000000000000000000000000000000000000000000000000000000",
            "0x0000000000000000000000004b992f2fbf714c0fcbb23bac5130ace48cad00cd"
          ],
          "data": "0x00000000000000000000000000000000000000000000d3c21bcecceda1000000",
          "blockHash": "0xfe45df3a32e577d641f162165150e4710e8b2e38e3d9aad1835800192a313075",
          "blockNumber": "0x2c24910",
          "blockTimestamp": "0x69aff65c",
          "transactionHash": "0xd21e7f2f8fc274c44fc53c891556a5ef37187df15250bbd8ed56ab459d26195b",
          "transactionIndex": "0x3",
          "logIndex": "0x1",
          "removed": false
        }
      ],
      "logsBloom": "0x00000000000000000000000000000000000000000000000000000000000000000000000000000000000000000000000000000002000000000000000000080000000000000000000000000008000000000000000000000000000100000000000000000000020000000000000000020800000000000000000000000010000000000000000000000001000000000000000000000000000000020000000000000000000000000000000000000000000000000000000000000000000000000000000000000002000000000000000000000000000000000000000000000000000020000000000000000000000000000000000000000000000000000000000000000000",
      "type": "0x2",
      "transactionHash": "0xd21e7f2f8fc274c44fc53c891556a5ef37187df15250bbd8ed56ab459d26195b",
      "transactionIndex": "0x3",
      "blockHash": "0xfe45df3a32e577d641f162165150e4710e8b2e38e3d9aad1835800192a313075",
      "blockNumber": "0x2c24910",
      "gasUsed": "0x10a1f",
      "effectiveGasPrice": "0x7a121",
      "blobGasUsed": "0x9c40",
      "from": "0x4b992f2fbf714c0fcbb23bac5130ace48cad00cd",
      "to": "0xe78663b6b31a67223f2a23e638142d5916484491",
      "contractAddress": null,
      "daFootprintGasScalar": "0x190",
      "l1BaseFeeScalar": "0x7d0",
      "l1BlobBaseFee": "0x1",
      "l1BlobBaseFeeScalar": "0xdbba0",
      "l1Fee": "0x90",
      "l1GasPrice": "0x11",
      "l1GasUsed": "0x640"
    },
    {
      "status": "0x1",
      "cumulativeGasUsed": "0x32e95",
      "logs": [
        {
          "address": "0xe78663b6b31a67223f2a23e638142d5916484491",
          "topics": [
            "0x8c5be1e5ebec7d5bd14f71427d1e84f3dd0314c0f7b2291e5b200ac8c7c3b925",
            "0x0000000000000000000000004b992f2fbf714c0fcbb23bac5130ace48cad00cd",
            "0x000000000000000000000000ee661645166fbd92e712ecbcf786b9c1707997ef"
          ],
          "data": "0xffffffffffffffffffffffffffffffffffffffffffffffffffffffffffffffff",
          "blockHash": "0x319aef80bebb0b9e9d0fa8c61d9781de0268c0cdd69702e5da66ea45ab3a66bf",
          "blockNumber": "0x2c24913",
          "blockTimestamp": "0x69aff65f",
          "transactionHash": "0x9a5b4eccb7eac4e0cb0c336846dde5d9be526f4cf932c53052d1fa4c887812a5",
          "transactionIndex": "0x3",
          "logIndex": "0x1",
          "removed": false
        }
      ],
      "logsBloom": "0x00000000040000000000000000000000000000000000000000000000000000000000000000000000000000000000000000000002000100000000000000280000000000000000000000000000000000000000000000000000000100000000000000000000000000000000000000020000000000000000000000000000000000000000000000000001000000000000000000000000000000020000000000000000020000000000000000000000000000000000000000000000000000000000000000000000000000000000000000000000000000000000000000010000000000000010000000000000000000000000000000000000000000000000000000000000",
      "type": "0x2",
      "transactionHash": "0x9a5b4eccb7eac4e0cb0c336846dde5d9be526f4cf932c53052d1fa4c887812a5",
      "transactionIndex": "0x3",
      "blockHash": "0x319aef80bebb0b9e9d0fa8c61d9781de0268c0cdd69702e5da66ea45ab3a66bf",
      "blockNumber": "0x2c24913",
      "gasUsed": "0xb4a9",
      "effectiveGasPrice": "0x7a121",
      "blobGasUsed": "0x9c40",
      "from": "0x4b992f2fbf714c0fcbb23bac5130ace48cad00cd",
      "to": "0xe78663b6b31a67223f2a23e638142d5916484491",
      "contractAddress": null,
      "daFootprintGasScalar": "0x190",
      "l1BaseFeeScalar": "0x7d0",
      "l1BlobBaseFee": "0x1",
      "l1BlobBaseFeeScalar": "0xdbba0",
      "l1Fee": "0x90",
      "l1GasPrice": "0x11",
      "l1GasUsed": "0x640"
    },
    {
      "status": "0x1",
      "cumulativeGasUsed": "0x3bc87",
      "logs": [
        {
          "address": "0xe78663b6b31a67223f2a23e638142d5916484491",
          "topics": [
            "0xddf252ad1be2c89b69c2b068fc378daa952ba7f163c4a11628f55a4df523b3ef",
            "0x0000000000000000000000004b992f2fbf714c0fcbb23bac5130ace48cad00cd",
            "0x000000000000000000000000ee661645166fbd92e712ecbcf786b9c1707997ef"
          ],
          "data": "0x0000000000000000000000000000000000000000000069e10de76676d0800000",
          "blockHash": "0x8fab14fb5e16926ac2d70d75effd712be6003e24f389e01ad67bf1dc445d5b62",
          "blockNumber": "0x2c24916",
          "blockTimestamp": "0x69aff662",
          "transactionHash": "0xe64a27d9fdfcf681ccfcc3ca6edf92b2e5fceb55ba1a22fda16da5628df9b1be",
          "transactionIndex": "0x3",
          "logIndex": "0x1",
          "removed": false
        },
        {
          "address": "0xee661645166fbd92e712ecbcf786b9c1707997ef",
          "topics": [
            "0xe6b81755e9a8d33c17416b71b3f0961808da876dbc287641d63f868e4fce0673",
            "0x0000000000000000000000004b992f2fbf714c0fcbb23bac5130ace48cad00cd"
          ],
          "data": "0x0000000000000000000000000000000000000000000069e10de76676d0800000",
          "blockHash": "0x8fab14fb5e16926ac2d70d75effd712be6003e24f389e01ad67bf1dc445d5b62",
          "blockNumber": "0x2c24916",
          "blockTimestamp": "0x69aff662",
          "transactionHash": "0xe64a27d9fdfcf681ccfcc3ca6edf92b2e5fceb55ba1a22fda16da5628df9b1be",
          "transactionIndex": "0x3",
          "logIndex": "0x2",
          "removed": false
        }
      ],
      "logsBloom": "0x01000000040000000000000004000000000000000000000000000000000000000000000000000000800000000000000000000002000100000000000000080000000000000000000000400008000000000000000000000040000100000000000000000000000000000000000000020000000000000000000000000010000000000000000000000041000000000000000000000000000000020000000000000000000000000000000000000000000000000000000000000000000000000000000000000002000000000000000000000000000000000000000000010000000000000000000000000000000000000000000000000000000000000000000000000000",
      "type": "0x2",
      "transactionHash": "0xe64a27d9fdfcf681ccfcc3ca6edf92b2e5fceb55ba1a22fda16da5628df9b1be",
      "transactionIndex": "0x3",
      "blockHash": "0x8fab14fb5e16926ac2d70d75effd712be6003e24f389e01ad67bf1dc445d5b62",
      "blockNumber": "0x2c24916",
      "gasUsed": "0x1429b",
      "effectiveGasPrice": "0x7a121",
      "blobGasUsed": "0x9c40",
      "from": "0x4b992f2fbf714c0fcbb23bac5130ace48cad00cd",
      "to": "0xee661645166fbd92e712ecbcf786b9c1707997ef",
      "contractAddress": null,
      "daFootprintGasScalar": "0x190",
      "l1BaseFeeScalar": "0x7d0",
      "l1BlobBaseFee": "0x1",
      "l1BlobBaseFeeScalar": "0xdbba0",
      "l1Fee": "0x90",
      "l1GasPrice": "0x11",
      "l1GasUsed": "0x640"
    },
    {
      "status": "0x1",
      "cumulativeGasUsed": "0x7667b",
      "logs": [
        {
          "address": "0xe78663b6b31a67223f2a23e638142d5916484491",
          "topics": [
            "0xddf252ad1be2c89b69c2b068fc378daa952ba7f163c4a11628f55a4df523b3ef",
            "0x0000000000000000000000000000000000000000000000000000000000000000",
            "0x00000000000000000000000010960d511c1c447175bb9f59e842f3d381d8a42c"
          ],
          "data": "0x00000000000000000000000000000000000000000000010f0cf064dd59200000",
          "blockHash": "0xccf2acee1c002fed1b6612621f723749752665e477fef6c3db69565d316512b3",
          "blockNumber": "0x2c24919",
          "blockTimestamp": "0x69aff665",
          "transactionHash": "0xc0b7edf207c94278a7b81d96443aa2eb731c184d47d7185230e8d7cc6b5f2b41",
          "transactionIndex": "0x5",
          "logIndex": "0x8",
          "removed": false
        }
      ],
      "logsBloom": "0x00000000000000000000000000000000000000000000080000000000000000000000000000000000000000000000000000000000000000000000000000080000000000000000000000000008000000000000000000000000000000000000000000000000020000000000000000000800000000000000000000000010000000000000000000000001000001000000000000000000000000020000000000000000000000000000000000000000000000000000000000000000000000000000000000000002000000000000000000000000000000000000000000000000000020000000000000000000000000000000000000000000000000000000040000000000",
      "type": "0x2",
      "transactionHash": "0xc0b7edf207c94278a7b81d96443aa2eb731c184d47d7185230e8d7cc6b5f2b41",
      "transactionIndex": "0x5",
      "blockHash": "0xccf2acee1c002fed1b6612621f723749752665e477fef6c3db69565d316512b3",
      "blockNumber": "0x2c24919",
      "gasUsed": "0xc76b",
      "effectiveGasPrice": "0x7a121",
      "blobGasUsed": "0x9c40",
      "from": "0x4b992f2fbf714c0fcbb23bac5130ace48cad00cd",
      "to": "0xe78663b6b31a67223f2a23e638142d5916484491",
      "contractAddress": null,
      "daFootprintGasScalar": "0x190",
      "l1BaseFeeScalar": "0x7d0",
      "l1BlobBaseFee": "0x1",
      "l1BlobBaseFeeScalar": "0xdbba0",
      "l1Fee": "0x90",
      "l1GasPrice": "0x11",
      "l1GasUsed": "0x640"
    },
    {
      "status": "0x1",
      "cumulativeGasUsed": "0x4b17d",
      "logs": [
        {
          "address": "0xe78663b6b31a67223f2a23e638142d5916484491",
          "topics": [
            "0xddf252ad1be2c89b69c2b068fc378daa952ba7f163c4a11628f55a4df523b3ef",
            "0x0000000000000000000000000000000000000000000000000000000000000000",
            "0x0000000000000000000000008c76d725dbed2f3617200d300fb7bae4cb86d113"
          ],
          "data": "0x00000000000000000000000000000000000000000000010f0cf064dd59200000",
          "blockHash": "0x408fe4e1a8f40a468c3a8ee120ed0125395ecf144944a711b3154b91effb978f",
          "blockNumber": "0x2c2491c",
          "blockTimestamp": "0x69aff668",
          "transactionHash": "0x6f8f666e901d0fba48536c5f1553a7e216c9899b92dcd11b3e1a66618c116455",
          "transactionIndex": "0x4",
          "logIndex": "0x2",
          "removed": false
        }
      ],
      "logsBloom": "0x00000000000000000000000000000000000000000000000000000000000000000000000000000000000000000000000000000000000000000000000000080000000000000000000000000008000000000000004000000000000000000000000000000000020000000000000000000800000000000000000000000010000000000000000000000001000000000000000000000000000000020000000000000000000000002000000000000000000000000000000000000000000000000000000000000002000000000000000000000000000000000000000000000000000020000000000000000000000000000000000000000000000000000000000000000080",
      "type": "0x2",
      "transactionHash": "0x6f8f666e901d0fba48536c5f1553a7e216c9899b92dcd11b3e1a66618c116455",
      "transactionIndex": "0x4",
      "blockHash": "0x408fe4e1a8f40a468c3a8ee120ed0125395ecf144944a711b3154b91effb978f",
      "blockNumber": "0x2c2491c",
      "gasUsed": "0xc76b",
      "effectiveGasPrice": "0x7a121",
      "blobGasUsed": "0x9c40",
      "from": "0x4b992f2fbf714c0fcbb23bac5130ace48cad00cd",
      "to": "0xe78663b6b31a67223f2a23e638142d5916484491",
      "contractAddress": null,
      "daFootprintGasScalar": "0x190",
      "l1BaseFeeScalar": "0x7d0",
      "l1BlobBaseFee": "0x1",
      "l1BlobBaseFeeScalar": "0xdbba0",
      "l1Fee": "0x90",
      "l1GasPrice": "0x11",
      "l1GasUsed": "0x640"
    },
    {
      "status": "0x1",
      "cumulativeGasUsed": "0x8ef51",
      "logs": [
        {
          "address": "0xe78663b6b31a67223f2a23e638142d5916484491",
          "topics": [
            "0x8c5be1e5ebec7d5bd14f71427d1e84f3dd0314c0f7b2291e5b200ac8c7c3b925",
            "0x00000000000000000000000010960d511c1c447175bb9f59e842f3d381d8a42c",
            "0x000000000000000000000000ee661645166fbd92e712ecbcf786b9c1707997ef"
          ],
          "data": "0xffffffffffffffffffffffffffffffffffffffffffffffffffffffffffffffff",
          "blockHash": "0x7b0dc30b3640d8168892ce412f1e9a30ffb611e53b1dc99b3f74b8454baa6dc9",
          "blockNumber": "0x2c2491f",
          "blockTimestamp": "0x69aff66b",
          "transactionHash": "0x153ba05a2e090ef916060f88af74f3a7c1cf9802a0512f71b6f257f580acd40c",
          "transactionIndex": "0x7",
          "logIndex": "0x5",
          "removed": false
        }
      ],
      "logsBloom": "0x00000000040000000000000000000000000000000000080000000000000000000000000000000000000000000000000000000000000100000000000000280000000000000000000000000000000000000000000000000000000000000000000000000000000000000000000000000000000000000000000000000000000000000000000000000001000001000000000000000000000000020000000000000000020000000000000000000000000000000000000000000000000000000000000000000000000000000000000000000000000000000000000000010000000000000010000000000000000000000000000000000000000000000000040000000000",
      "type": "0x2",
      "transactionHash": "0x153ba05a2e090ef916060f88af74f3a7c1cf9802a0512f71b6f257f580acd40c",
      "transactionIndex": "0x7",
      "blockHash": "0x7b0dc30b3640d8168892ce412f1e9a30ffb611e53b1dc99b3f74b8454baa6dc9",
      "blockNumber": "0x2c2491f",
      "gasUsed": "0xb4a9",
      "effectiveGasPrice": "0x7a121",
      "blobGasUsed": "0x9c40",
      "from": "0x10960d511c1c447175bb9f59e842f3d381d8a42c",
      "to": "0xe78663b6b31a67223f2a23e638142d5916484491",
      "contractAddress": null,
      "daFootprintGasScalar": "0x190",
      "l1BaseFeeScalar": "0x7d0",
      "l1BlobBaseFee": "0x1",
      "l1BlobBaseFeeScalar": "0xdbba0",
      "l1Fee": "0x90",
      "l1GasPrice": "0x11",
      "l1GasUsed": "0x640"
    },
    {
      "status": "0x1",
      "cumulativeGasUsed": "0x5c21f",
      "logs": [
        {
          "address": "0xe78663b6b31a67223f2a23e638142d5916484491",
          "topics": [
            "0xddf252ad1be2c89b69c2b068fc378daa952ba7f163c4a11628f55a4df523b3ef",
            "0x00000000000000000000000010960d511c1c447175bb9f59e842f3d381d8a42c",
            "0x000000000000000000000000ee661645166fbd92e712ecbcf786b9c1707997ef"
          ],
          "data": "0x00000000000000000000000000000000000000000000003635c9adc5dea00000",
          "blockHash": "0x99865f7053c311d154ada593f93bb501c3ae180535f31f6915221842d6aa81c4",
          "blockNumber": "0x2c24921",
          "blockTimestamp": "0x69aff66d",
          "transactionHash": "0x6a15d2b649c9b2a6eda6125453ee77d768fe62e3d37ab76ffe3289f31d062fc7",
          "transactionIndex": "0x4",
          "logIndex": "0x3",
          "removed": false
        },
        {
          "address": "0xee661645166fbd92e712ecbcf786b9c1707997ef",
          "topics": [
            "0xd7243f6f8212d5188fd054141cf6ea89cfc0d91facb8c3afe2f88a1358480142",
            "0x00000000000000000000000010960d511c1c447175bb9f59e842f3d381d8a42c"
          ],
          "data": "0x00000000000000000000000000000000000000000000003635c9adc5dea00000",
          "blockHash": "0x99865f7053c311d154ada593f93bb501c3ae180535f31f6915221842d6aa81c4",
          "blockNumber": "0x2c24921",
          "blockTimestamp": "0x69aff66d",
          "transactionHash": "0x6a15d2b649c9b2a6eda6125453ee77d768fe62e3d37ab76ffe3289f31d062fc7",
          "transactionIndex": "0x4",
          "logIndex": "0x4",
          "removed": false
        }
      ],
      "logsBloom": "0x00000000040000000000000004000000000000000000080000000000000000000000000000000000000000000000000000000000000100000000000000080000000000000000000000000008000000000000000000000040000000000000000000000000000000000000000000000000000000000000000000000010000000000000000000000041000001000000000000000000000000020000000000000000000000000000000000000000000000000000000000000000000000000000000000000012000000000000000000000000000000000040008000010000000000000000000000000000000000000000000000000000000000000000040000000000",
      "type": "0x2",
      "transactionHash": "0x6a15d2b649c9b2a6eda6125453ee77d768fe62e3d37ab76ffe3289f31d062fc7",
      "transactionIndex": "0x4",
      "blockHash": "0x99865f7053c311d154ada593f93bb501c3ae180535f31f6915221842d6aa81c4",
      "blockNumber": "0x2c24921",
      "gasUsed": "0x12052",
      "effectiveGasPrice": "0x7a121",
      "blobGasUsed": "0x9c40",
      "from": "0x10960d511c1c447175bb9f59e842f3d381d8a42c",
      "to": "0xac25bd28d5171821ecc9030933778d2ce242fa8a",
      "contractAddress": null,
      "daFootprintGasScalar": "0x190",
      "l1BaseFeeScalar": "0x7d0",
      "l1BlobBaseFee": "0x1",
      "l1BlobBaseFeeScalar": "0xdbba0",
      "l1Fee": "0x90",
      "l1GasPrice": "0x11",
      "l1GasUsed": "0x640"
    },
    {
      "status": "0x1",
      "cumulativeGasUsed": "0x98677",
      "logs": [
        {
          "address": "0xee661645166fbd92e712ecbcf786b9c1707997ef",
          "topics": [
            "0x2251f6a4ed7fe619e9e8ce557d05a63dd484284f9c95c9ab334f6a7707cd0800",
            "0x00000000000000000000000010960d511c1c447175bb9f59e842f3d381d8a42c"
          ],
          "data": "0x000000000000000000000000000000000000000000000015af1d78b58c400000",
          "blockHash": "0xa4646514ea5eab99f67da038d8eab66299d00c01836760606b387086768ea6c7",
          "blockNumber": "0x2c24926",
          "blockTimestamp": "0x69aff672",
          "transactionHash": "0x3c9b0a35cf2fe48202d3107abc3400877f7b4ea0d168ee500f29ce2dff0824aa",
          "transactionIndex": "0x6",
          "logIndex": "0x4",
          "removed": false
        },
        {
          "address": "0xac25bd28d5171821ecc9030933778d2ce242fa8a",
          "topics": [
            "0x57ab4c4d40a32ad167254ad966d3295c6b75a4b4be6f5b76b6ac9df41c29839e",
            "0x00000000000000000000000010960d511c1c447175bb9f59e842f3d381d8a42c",
            "0x33972942cefbf97c03ea29e76ef387aa1a01c5cb18256d3e1b76081ba0211727"
          ],
          "data": "0x000000000000000000000000000000000000000000000015af1d78b58c400000",
          "blockHash": "0xa4646514ea5eab99f67da038d8eab66299d00c01836760606b387086768ea6c7",
          "blockNumber": "0x2c24926",
          "blockTimestamp": "0x69aff672",
          "transactionHash": "0x3c9b0a35cf2fe48202d3107abc3400877f7b4ea0d168ee500f29ce2dff0824aa",
          "transactionIndex": "0x6",
          "logIndex": "0x5",
          "removed": false
        },
        {
          "address": "0xac25bd28d5171821ecc9030933778d2ce242fa8a",
          "topics": [
            "0x53f7cfc606524ccf2054da18d9def21a9c44db61e534d6085e99222dfbc30a29",
            "0x00000000000000000000000010960d511c1c447175bb9f59e842f3d381d8a42c",
            "0x33972942cefbf97c03ea29e76ef387aa1a01c5cb18256d3e1b76081ba0211727"
          ],
          "data": "0x0000000000000000000000000000000000000000000000a2a15d09519be000000000000000000000000000000000000000000000000000000de0b6b3a7640000",
          "blockHash": "0xa4646514ea5eab99f67da038d8eab66299d00c01836760606b387086768ea6c7",
          "blockNumber": "0x2c24926",
          "blockTimestamp": "0x69aff672",
          "transactionHash": "0x3c9b0a35cf2fe48202d3107abc3400877f7b4ea0d168ee500f29ce2dff0824aa",
          "transactionIndex": "0x6",
          "logIndex": "0x6",
          "removed": false
        },
        {
          "address": "0xac25bd28d5171821ecc9030933778d2ce242fa8a",
          "topics": [
            "0x51ef66df3aef8a95c6d8892ea5771b00fd637e9f04fed76e6701b2d8c1d0f753",
            "0x00000000000000000000000010960d511c1c447175bb9f59e842f3d381d8a42c",
            "0x33972942cefbf97c03ea29e76ef387aa1a01c5cb18256d3e1b76081ba0211727"
          ],
          "data": "0x0000000000000000000000000000000000000000000000a2a15d09519be000000000000000000000000000000000000000000000000000000de0b6b3a7640000",
          "blockHash": "0xa4646514ea5eab99f67da038d8eab66299d00c01836760606b387086768ea6c7",
          "blockNumber": "0x2c24926",
          "blockTimestamp": "0x69aff672",
          "transactionHash": "0x3c9b0a35cf2fe48202d3107abc3400877f7b4ea0d168ee500f29ce2dff0824aa",
          "transactionIndex": "0x6",
          "logIndex": "0x7",
          "removed": false
        }
      ],
      "logsBloom": "0x00400000000000000000000004000000040400000000080000000000000000200000000000000000000000000000000000000000000000000000000000000000000000000000000000000000000080000000000000000040000000000000000004000000000000000000000000000000000000000000020000000000000000000000002002000040000001000000000000000000000004000000000000000100000000000000000000000000000020000000000010000000000000000000000000000000000000000000000000000000000000000000000000000004000000000000000000000000800080000000000000400004000000000000040000000000",
      "type": "0x2",
      "transactionHash": "0x3c9b0a35cf2fe48202d3107abc3400877f7b4ea0d168ee500f29ce2dff0824aa",
      "transactionIndex": "0x6",
      "blockHash": "0xa4646514ea5eab99f67da038d8eab66299d00c01836760606b387086768ea6c7",
      "blockNumber": "0x2c24926",
      "gasUsed": "0x2bc0d",
      "effectiveGasPrice": "0x7a121",
      "blobGasUsed": "0xa8c0",
      "from": "0x10960d511c1c447175bb9f59e842f3d381d8a42c",
      "to": "0xac25bd28d5171821ecc9030933778d2ce242fa8a",
      "contractAddress": null,
      "daFootprintGasScalar": "0x190",
      "l1BaseFeeScalar": "0x7d0",
      "l1BlobBaseFee": "0x1",
      "l1BlobBaseFeeScalar": "0xdbba0",
      "l1Fee": "0x9d",
      "l1GasPrice": "0x11",
      "l1GasUsed": "0x6cd"
    },
    {
      "status": "0x1",
      "cumulativeGasUsed": "0x49eaf",
      "logs": [
        {
          "address": "0xe78663b6b31a67223f2a23e638142d5916484491",
          "topics": [
            "0x8c5be1e5ebec7d5bd14f71427d1e84f3dd0314c0f7b2291e5b200ac8c7c3b925",
            "0x0000000000000000000000008c76d725dbed2f3617200d300fb7bae4cb86d113",
            "0x000000000000000000000000ee661645166fbd92e712ecbcf786b9c1707997ef"
          ],
          "data": "0xffffffffffffffffffffffffffffffffffffffffffffffffffffffffffffffff",
          "blockHash": "0xf7272c6fe98cd50835f1ede4da9abfd0dacd60ff7aa7b652d1a2b20952bada0d",
          "blockNumber": "0x2c24929",
          "blockTimestamp": "0x69aff675",
          "transactionHash": "0x93c6c83593d6d92aeb6a49919aabe53ddef63e52fb762d88e7971747b3a91260",
          "transactionIndex": "0x4",
          "logIndex": "0x2",
          "removed": false
        }
      ],
      "logsBloom": "0x00000000040000000000000000000000000000000000000000000000000000000000000000000000000000000000000000000000000100000000000000280000000000000000000000000000000000000000004000000000000000000000000000000000000000000000000000000000000000000000000000000000000000000000000000000001000000000000000000000000000000020000000000000000020000002000000000000000000000000000000000000000000000000000000000000000000000000000000000000000000000000000000000010000000000000010000000000000000000000000000000000000000000000000000000000080",
      "type": "0x2",
      "transactionHash": "0x93c6c83593d6d92aeb6a49919aabe53ddef63e52fb762d88e7971747b3a91260",
      "transactionIndex": "0x4",
      "blockHash": "0xf7272c6fe98cd50835f1ede4da9abfd0dacd60ff7aa7b652d1a2b20952bada0d",
      "blockNumber": "0x2c24929",
      "gasUsed": "0xb4a9",
      "effectiveGasPrice": "0x7a121",
      "blobGasUsed": "0x9c40",
      "from": "0x8c76d725dbed2f3617200d300fb7bae4cb86d113",
      "to": "0xe78663b6b31a67223f2a23e638142d5916484491",
      "contractAddress": null,
      "daFootprintGasScalar": "0x190",
      "l1BaseFeeScalar": "0x7d0",
      "l1BlobBaseFee": "0x2",
      "l1BlobBaseFeeScalar": "0xdbba0",
      "l1Fee": "0xea",
      "l1GasPrice": "0x11",
      "l1GasUsed": "0x640"
    },
    {
      "status": "0x1",
      "cumulativeGasUsed": "0x67a8a",
      "logs": [
        {
          "address": "0xe78663b6b31a67223f2a23e638142d5916484491",
          "topics": [
            "0xddf252ad1be2c89b69c2b068fc378daa952ba7f163c4a11628f55a4df523b3ef",
            "0x0000000000000000000000008c76d725dbed2f3617200d300fb7bae4cb86d113",
            "0x000000000000000000000000ee661645166fbd92e712ecbcf786b9c1707997ef"
          ],
          "data": "0x00000000000000000000000000000000000000000000003635c9adc5dea00000",
          "blockHash": "0xedb4ca91ddc9960e1451bc4eb4da45d9b5167f035e97127ee3befb1818abfca2",
          "blockNumber": "0x2c2492c",
          "blockTimestamp": "0x69aff678",
          "transactionHash": "0xb01c8300a7f03202cadf22035a79584b80be73955236561ed5c679b9ca8db250",
          "transactionIndex": "0x5",
          "logIndex": "0x3",
          "removed": false
        },
        {
          "address": "0xee661645166fbd92e712ecbcf786b9c1707997ef",
          "topics": [
            "0xd7243f6f8212d5188fd054141cf6ea89cfc0d91facb8c3afe2f88a1358480142",
            "0x0000000000000000000000008c76d725dbed2f3617200d300fb7bae4cb86d113"
          ],
          "data": "0x00000000000000000000000000000000000000000000003635c9adc5dea00000",
          "blockHash": "0xedb4ca91ddc9960e1451bc4eb4da45d9b5167f035e97127ee3befb1818abfca2",
          "blockNumber": "0x2c2492c",
          "blockTimestamp": "0x69aff678",
          "transactionHash": "0xb01c8300a7f03202cadf22035a79584b80be73955236561ed5c679b9ca8db250",
          "transactionIndex": "0x5",
          "logIndex": "0x4",
          "removed": false
        }
      ],
      "logsBloom": "0x00000000040000000000000004000000000000000000000000000000000000000000000000000000000000000000000000000000000100000000000000080000000000000000000000000008000000000000004000000040000000000000000000000000000000000000000000000000000000000000000000000010000000000000000000000041000000000000000000000000000000020000000000000000000000002000000000000000000000000000000000000000000000000000000000000012000000000000000000000000000000000040008000010000000000000000000000000000000000000000000000000000000000000000000000000080",
      "type": "0x2",
      "transactionHash": "0xb01c8300a7f03202cadf22035a79584b80be73955236561ed5c679b9ca8db250",
      "transactionIndex": "0x5",
      "blockHash": "0xedb4ca91ddc9960e1451bc4eb4da45d9b5167f035e97127ee3befb1818abfca2",
      "blockNumber": "0x2c2492c",
      "gasUsed": "0x12052",
      "effectiveGasPrice": "0x7a121",
      "blobGasUsed": "0x9c40",
      "from": "0x8c76d725dbed2f3617200d300fb7bae4cb86d113",
      "to": "0xac25bd28d5171821ecc9030933778d2ce242fa8a",
      "contractAddress": null,
      "daFootprintGasScalar": "0x190",
      "l1BaseFeeScalar": "0x7d0",
      "l1BlobBaseFee": "0x2",
      "l1BlobBaseFeeScalar": "0xdbba0",
      "l1Fee": "0xea",
      "l1GasPrice": "0x11",
      "l1GasUsed": "0x640"
    },
    {
      "status": "0x1",
      "cumulativeGasUsed": "0xd0443",
      "logs": [
        {
          "address": "0xee661645166fbd92e712ecbcf786b9c1707997ef",
          "topics": [
            "0x2251f6a4ed7fe619e9e8ce557d05a63dd484284f9c95c9ab334f6a7707cd0800",
            "0x0000000000000000000000008c76d725dbed2f3617200d300fb7bae4cb86d113"
          ],
          "data": "0x000000000000000000000000000000000000000000000015af1d78b58c400000",
          "blockHash": "0x317106668c139fdee31759033b1f1920bc45e94191837005dcb06d6046758777",
          "blockNumber": "0x2c2492e",
          "blockTimestamp": "0x69aff67a",
          "transactionHash": "0xf3bfc1dd0f69121d8ca2357706c2f969e08f9f21e0ce3a977acdaf752e1fcd6a",
          "transactionIndex": "0x8",
          "logIndex": "0x9",
          "removed": false
        },
        {
          "address": "0xac25bd28d5171821ecc9030933778d2ce242fa8a",
          "topics": [
            "0x57ab4c4d40a32ad167254ad966d3295c6b75a4b4be6f5b76b6ac9df41c29839e",
            "0x0000000000000000000000008c76d725dbed2f3617200d300fb7bae4cb86d113",
            "0x33972942cefbf97c03ea29e76ef387aa1a01c5cb18256d3e1b76081ba0211727"
          ],
          "data": "0x000000000000000000000000000000000000000000000015af1d78b58c400000",
          "blockHash": "0x317106668c139fdee31759033b1f1920bc45e94191837005dcb06d6046758777",
          "blockNumber": "0x2c2492e",
          "blockTimestamp": "0x69aff67a",
          "transactionHash": "0xf3bfc1dd0f69121d8ca2357706c2f969e08f9f21e0ce3a977acdaf752e1fcd6a",
          "transactionIndex": "0x8",
          "logIndex": "0xa",
          "removed": false
        },
        {
          "address": "0xac25bd28d5171821ecc9030933778d2ce242fa8a",
          "topics": [
            "0x53f7cfc606524ccf2054da18d9def21a9c44db61e534d6085e99222dfbc30a29",
            "0x0000000000000000000000008c76d725dbed2f3617200d300fb7bae4cb86d113",
            "0x33972942cefbf97c03ea29e76ef387aa1a01c5cb18256d3e1b76081ba0211727"
          ],
          "data": "0xffffffffffffffffffffffffffffffffffffffffffffff93946ca47442c000000000000000000000000000000000000000000000000000000de0b6b3a7640000",
          "blockHash": "0x317106668c139fdee31759033b1f1920bc45e94191837005dcb06d6046758777",
          "blockNumber": "0x2c2492e",
          "blockTimestamp": "0x69aff67a",
          "transactionHash": "0xf3bfc1dd0f69121d8ca2357706c2f969e08f9f21e0ce3a977acdaf752e1fcd6a",
          "transactionIndex": "0x8",
          "logIndex": "0xb",
          "removed": false
        },
        {
          "address": "0xac25bd28d5171821ecc9030933778d2ce242fa8a",
          "topics": [
            "0x51ef66df3aef8a95c6d8892ea5771b00fd637e9f04fed76e6701b2d8c1d0f753",
            "0x0000000000000000000000008c76d725dbed2f3617200d300fb7bae4cb86d113",
            "0x33972942cefbf97c03ea29e76ef387aa1a01c5cb18256d3e1b76081ba0211727"
          ],
          "data": "0xffffffffffffffffffffffffffffffffffffffffffffff93946ca47442c000000000000000000000000000000000000000000000000000000de0b6b3a7640000",
          "blockHash": "0x317106668c139fdee31759033b1f1920bc45e94191837005dcb06d6046758777",
          "blockNumber": "0x2c2492e",
          "blockTimestamp": "0x69aff67a",
          "transactionHash": "0xf3bfc1dd0f69121d8ca2357706c2f969e08f9f21e0ce3a977acdaf752e1fcd6a",
          "transactionIndex": "0x8",
          "logIndex": "0xc",
          "removed": false
        }
      ],
      "logsBloom": "0x00400000000000000000000004000000040400000000000000000000000000200000000000000000000000000000000000000000000000000000000000000000000000000000000000000000000080000000004000000040000000000000000004000000000000000000000000000000000000000000020000000000000000000000002002000040000000000000000000000000000004000000000000000100000000002000000000000000000020000000000010000000000000000000000000000000000000000000000000000000000000000000000000000004000000000000000000000000800080000000000000400004000000000000000000000080",
      "type": "0x2",
      "transactionHash": "0xf3bfc1dd0f69121d8ca2357706c2f969e08f9f21e0ce3a977acdaf752e1fcd6a",
      "transactionIndex": "0x8",
      "blockHash": "0x317106668c139fdee31759033b1f1920bc45e94191837005dcb06d6046758777",
      "blockNumber": "0x2c2492e",
      "gasUsed": "0x27984",
      "effectiveGasPrice": "0x7a121",
      "blobGasUsed": "0x9f60",
      "from": "0x8c76d725dbed2f3617200d300fb7bae4cb86d113",
      "to": "0xac25bd28d5171821ecc9030933778d2ce242fa8a",
      "contractAddress": null,
      "daFootprintGasScalar": "0x190",
      "l1BaseFeeScalar": "0x7d0",
      "l1BlobBaseFee": "0x2",
      "l1BlobBaseFeeScalar": "0xdbba0",
      "l1Fee": "0xf1",
      "l1GasPrice": "0x11",
      "l1GasUsed": "0x66f"
    },
    {
      "status": "0x1",
      "cumulativeGasUsed": "0x46095",
      "logs": [
        {
          "address": "0xac25bd28d5171821ecc9030933778d2ce242fa8a",
          "topics": [
            "0xe44a72dedd13d73dc8f7a34a73ec39f494980252f270dbe4810e1ce7cd07252b",
            "0x33972942cefbf97c03ea29e76ef387aa1a01c5cb18256d3e1b76081ba0211727"
          ],
          "data": "0x0000000000000000000000000000000000000000000000000de0b6b3a7640000",
          "blockHash": "0x89fda2979d11f99c4cd7efc7c53d609c7b2c0b0fbcb795bd185a981e0c69a295",
          "blockNumber": "0x2c24931",
          "blockTimestamp": "0x69aff67d",
          "transactionHash": "0x010d5ad600daa10e156ad147646952f86f145a5d8d651295613a676a5b91d44a",
          "transactionIndex": "0x4",
          "logIndex": "0x2",
          "removed": false
        }
      ],
      "logsBloom": "0x00000000000000000000000000000000240400000000000000000000000000000000000000000000000000000000000000000000000000000000000000000000000000000000000000000000000000000000000000000000000000000000000000000000000000000000000000000000000000000000000000000000000000000000000002000000000000000000000000000000000004000000010000000000000000000000000000000000000000000000000010000000000000000000000000000000000000000000000000020000000000000000000000000000000000000000000000000000000080000000000000000000000000000000000000000000",
      "type": "0x2",
      "transactionHash": "0x010d5ad600daa10e156ad147646952f86f145a5d8d651295613a676a5b91d44a",
      "transactionIndex": "0x4",
      "blockHash": "0x89fda2979d11f99c4cd7efc7c53d609c7b2c0b0fbcb795bd185a981e0c69a295",
      "blockNumber": "0x2c24931",
      "gasUsed": "0x769b",
      "effectiveGasPrice": "0x7a121",
      "blobGasUsed": "0x9c40",
      "from": "0x4b992f2fbf714c0fcbb23bac5130ace48cad00cd",
      "to": "0xac25bd28d5171821ecc9030933778d2ce242fa8a",
      "contractAddress": null,
      "daFootprintGasScalar": "0x190",
      "l1BaseFeeScalar": "0x7d0",
      "l1BlobBaseFee": "0x2",
      "l1BlobBaseFeeScalar": "0xdbba0",
      "l1Fee": "0xea",
      "l1GasPrice": "0x11",
      "l1GasUsed": "0x640"
    },
    {
      "status": "0x1",
      "cumulativeGasUsed": "0x45f7b",
      "logs": [
        {
          "address": "0xac25bd28d5171821ecc9030933778d2ce242fa8a",
          "topics": [
            "0x4eab7b127c764308788622363ad3e9532de3dfba7845bd4f84c125a22544255a",
            "0x0000000000000000000000004b992f2fbf714c0fcbb23bac5130ace48cad00cd"
          ],
          "data": "0x",
          "blockHash": "0x931122f33fa9454b1cc4b942f4af7d3d8a04fb03173cee8044cc3b406bf839f7",
          "blockNumber": "0x2c24934",
          "blockTimestamp": "0x69aff680",
          "transactionHash": "0xd8d3c262fd18c7b9304c09af7c086d3bfa4913c7ffca6e4e3efa91a55642f1d1",
          "transactionIndex": "0x4",
          "logIndex": "0x2",
          "removed": false
        }
      ],
      "logsBloom": "0x00000000000000000000000000000000000400000000000000000000000000000000000000000000000000000000000000000002000000000000000000000000000000000000000000000000000000000000000000000000000100000000000000000000000000000000000000020000000000000000000000000000000000000000000000000000000000400000000000000000000000000000000000000000000000000000008000000000000000000000000010000000000000000000000000004000000000000000000000000000000000000000000000000000000000000000000000000000000080000000000000000000000000000000000000000000",
      "type": "0x2",
      "transactionHash": "0xd8d3c262fd18c7b9304c09af7c086d3bfa4913c7ffca6e4e3efa91a55642f1d1",
      "transactionIndex": "0x4",
      "blockHash": "0x931122f33fa9454b1cc4b942f4af7d3d8a04fb03173cee8044cc3b406bf839f7",
      "blockNumber": "0x2c24934",
      "gasUsed": "0x7569",
      "effectiveGasPrice": "0x7a121",
      "blobGasUsed": "0x9c40",
      "from": "0x4b992f2fbf714c0fcbb23bac5130ace48cad00cd",
      "to": "0xac25bd28d5171821ecc9030933778d2ce242fa8a",
      "contractAddress": null,
      "daFootprintGasScalar": "0x190",
      "l1BaseFeeScalar": "0x7d0",
      "l1BlobBaseFee": "0x2",
      "l1BlobBaseFeeScalar": "0xdbba0",
      "l1Fee": "0xea",
      "l1GasPrice": "0x11",
      "l1GasUsed": "0x640"
    },
    {
      "status": "0x1",
      "cumulativeGasUsed": "0x3021c",
      "logs": [
        {
          "address": "0xac25bd28d5171821ecc9030933778d2ce242fa8a",
          "topics": [
            "0x7e3b37ff982592cf8b07b654e23550e253ed705a9d04560247e79beed3919261",
            "0x33972942cefbf97c03ea29e76ef387aa1a01c5cb18256d3e1b76081ba0211727"
          ],
          "data": "0x00000000000000000000000000000000000000000000000006ccd46763f0ffff0000000000000000000000000000000000000000000000000000000000000000",
          "blockHash": "0x3665a20156249b680fe5875d4b19f5da743c119392b51787d8413d07fdc163c0",
          "blockNumber": "0x2c24938",
          "blockTimestamp": "0x69aff684",
          "transactionHash": "0x9012236a14428f03f39f722847d3a1b90d67554ad359c1c0ca957372f1a7921f",
          "transactionIndex": "0x3",
          "logIndex": "0x1",
          "removed": false
        }
      ],
      "logsBloom": "0x00000000000000000000000000000000040400000000000000000000000010000000000000000000000000000000000000000000000000000000000000000000000000000000000000000000000000000000000000000000000000000000400000000000000000000000000000000000400000000000000000000000000000000000000002000000000000000000000000000000000004000000000000000000000000000000000000000000000000000000000010000000000000000000000000000000000000000000000000000000000000000000000000000000000000000000000000000000000080000000000000000000000000000000000000000000",
      "type": "0x2",
      "transactionHash": "0x9012236a14428f03f39f722847d3a1b90d67554ad359c1c0ca957372f1a7921f",
      "transactionIndex": "0x3",
      "blockHash": "0x3665a20156249b680fe5875d4b19f5da743c119392b51787d8413d07fdc163c0",
      "blockNumber": "0x2c24938",
      "gasUsed": "0x883c",
      "effectiveGasPrice": "0x7a121",
      "blobGasUsed": "0xe420",
      "from": "0x4b992f2fbf714c0fcbb23bac5130ace48cad00cd",
      "to": "0xac25bd28d5171821ecc9030933778d2ce242fa8a",
      "contractAddress": null,
      "daFootprintGasScalar": "0x190",
      "l1BaseFeeScalar": "0x7d0",
      "l1BlobBaseFee": "0x2",
      "l1BlobBaseFeeScalar": "0xdbba0",
      "l1Fee": "0x157",
      "l1GasPrice": "0x11",
      "l1GasUsed": "0x927"
    },
    {
      "status": "0x1",
      "cumulativeGasUsed": "0x46ca9",
      "logs": [],
      "logsBloom": "0x00000000000000000000000000000000000000000000000000000000000000000000000000000000000000000000000000000000000000000000000000000000000000000000000000000000000000000000000000000000000000000000000000000000000000000000000000000000000000000000000000000000000000000000000000000000000000000000000000000000000000000000000000000000000000000000000000000000000000000000000000000000000000000000000000000000000000000000000000000000000000000000000000000000000000000000000000000000000000000000000000000000000000000000000000000000",
      "type": "0x2",
      "transactionHash": "0x58078b43c5efc4bf3c02638a1d2ef5d25408c6878b628263376aca1563773a52",
      "transactionIndex": "0x4",
      "blockHash": "0x6c3461ec96747cd558b62af36ff3ee86dda00ee8c6823b9ff01e8109924af79f",
      "blockNumber": "0x2c2493a",
      "gasUsed": "0x828b",
      "effectiveGasPrice": "0x7a121",
      "blobGasUsed": "0x9c40",
      "from": "0x4b992f2fbf714c0fcbb23bac5130ace48cad00cd",
      "to": "0xac25bd28d5171821ecc9030933778d2ce242fa8a",
      "contractAddress": null,
      "daFootprintGasScalar": "0x190",
      "l1BaseFeeScalar": "0x7d0",
      "l1BlobBaseFee": "0x2",
      "l1BlobBaseFeeScalar": "0xdbba0",
      "l1Fee": "0xea",
      "l1GasPrice": "0x11",
      "l1GasUsed": "0x640"
    },
    {
      "status": "0x1",
      "cumulativeGasUsed": "0x85cbe",
      "logs": [
        {
          "address": "0xac25bd28d5171821ecc9030933778d2ce242fa8a",
          "topics": [
            "0x1042276b475e84e5861056cafd7c753ad24a4ec58b1dacc00bca94d41823e9ce",
            "0x00000000000000000000000010960d511c1c447175bb9f59e842f3d381d8a42c",
            "0x33972942cefbf97c03ea29e76ef387aa1a01c5cb18256d3e1b76081ba0211727"
          ],
          "data": "0x0000000000000000000000000000000000000000000000000000000000000000",
          "blockHash": "0xca9702b162c2544723637463820bbf982051aa8c1e41886878a2b7fac33acbdf",
          "blockNumber": "0x2c2493d",
          "blockTimestamp": "0x69aff689",
          "transactionHash": "0xe8d1d9348225740fd72a19fa75060d9b969b341a0524e275b571b026669d3860",
          "transactionIndex": "0x6",
          "logIndex": "0x4",
          "removed": false
        },
        {
          "address": "0xac25bd28d5171821ecc9030933778d2ce242fa8a",
          "topics": [
            "0xbbd196e17ea2db77c92d1902d6a040c94461f6008ce76a565195bd2dd20bc54a",
            "0x00000000000000000000000010960d511c1c447175bb9f59e842f3d381d8a42c",
            "0x0000000000000000000000004b992f2fbf714c0fcbb23bac5130ace48cad00cd",
            "0x33972942cefbf97c03ea29e76ef387aa1a01c5cb18256d3e1b76081ba0211727"
          ],
          "data": "0xffffffffffffffffffffffffffffffffffffffffffffffc2be198aff2097f44800000000000000000000000000000000000000000000003d41e67500df680bb8",
          "blockHash": "0xca9702b162c2544723637463820bbf982051aa8c1e41886878a2b7fac33acbdf",
          "blockNumber": "0x2c2493d",
          "blockTimestamp": "0x69aff689",
          "transactionHash": "0xe8d1d9348225740fd72a19fa75060d9b969b341a0524e275b571b026669d3860",
          "transactionIndex": "0x6",
          "logIndex": "0x5",
          "removed": false
        },
        {
          "address": "0x0d428e4ee3da759831bdbf0e75aecf91dda24764",
          "topics": [
            "0x390f862d0f5a1e8d6065fbbde56194d2f11e54bdd809216674705586679431cc",
            "0x0000000000000000000000004b992f2fbf714c0fcbb23bac5130ace48cad00cd",
            "0x00000000000000000000000010960d511c1c447175bb9f59e842f3d381d8a42c",
            "0x33972942cefbf97c03ea29e76ef387aa1a01c5cb18256d3e1b76081ba0211727"
          ],
          "data": "0x",
          "blockHash": "0xca9702b162c2544723637463820bbf982051aa8c1e41886878a2b7fac33acbdf",
          "blockNumber": "0x2c2493d",
          "blockTimestamp": "0x69aff689",
          "transactionHash": "0xe8d1d9348225740fd72a19fa75060d9b969b341a0524e275b571b026669d3860",
          "transactionIndex": "0x6",
          "logIndex": "0x6",
          "removed": false
        }
      ],
      "logsBloom": "0x00000000000000000000000000000000040400000000080000000000000000000000000000000000000000000000000000000002000000020000000000000000000000000000000000000000000000000000000000000000000100000002000000000000000000000000000000020000000000000000000000000000400000000000000002000000000001000000000000000000000004000080000000000020100000000000000000000000400000000000000010000000000000000000000000000000000000000000000000000000000000000000000002000000000000000000000000000000000080004000000000000000000000400000040000400001",
      "type": "0x2",
      "transactionHash": "0xe8d1d9348225740fd72a19fa75060d9b969b341a0524e275b571b026669d3860",
      "transactionIndex": "0x6",
      "blockHash": "0xca9702b162c2544723637463820bbf982051aa8c1e41886878a2b7fac33acbdf",
      "blockNumber": "0x2c2493d",
      "gasUsed": "0x19254",
      "effectiveGasPrice": "0x7a121",
      "blobGasUsed": "0xa280",
      "from": "0x4b992f2fbf714c0fcbb23bac5130ace48cad00cd",
      "to": "0x0d428e4ee3da759831bdbf0e75aecf91dda24764",
      "contractAddress": null,
      "daFootprintGasScalar": "0x190",
      "l1BaseFeeScalar": "0x7d0",
      "l1BlobBaseFee": "0x2",
      "l1BlobBaseFeeScalar": "0xdbba0",
      "l1Fee": "0xf5",
      "l1GasPrice": "0x11",
      "l1GasUsed": "0x68a"
    }
  ],
  "libraries": [],
  "pending": [],
  "returns": {},
  "timestamp": 1773139598437,
  "chain": 1301,
  "commit": "2a5c419"
}